:020000040800F2
:10000000005000201D600008656000086560000861
:100010006560000865600008656000080000000079
:100020000000000000000000000000007553000800
:100030006560000800000000355400088554000881
:10004000656000086560000865600008656000087C
:10005000656000086560000865600008656000086C
:10006000656000086560000865600008656000085C
:10007000656000086560000865600008656000084C
:10008000656000086560000865600008656000083C
:10009000656000086560000865600008656000082C
:1000A000656000086560000865600008656000081C
:1000B000656000086560000865600008656000080C
:1000C00065600008656000086560000865600008FC
:1000D0006560000869280008656000086560000820
:1000E00065600008656000086560000800000000A9
:1000F0000000000000000000000000000000000000
:0C01000000000000000000005FF808F1A3
:1001100010B5054C237833B9044B13B10448AFF341
:1001200000800123237010BD9C000020000000000F
:100130000C01000808B5034B1BB103490348AFF39A
:10014000008008BD00000000A00000200C01000895
:10015000F0B50C4B0C4E93E8070085B001AF87E873
:10016000070004AD3C4640F2EE2004F029F9214698
:1001700000234FF47A723068043402F087FEAC42F8
:10018000F1D1EFE7FC680008B800002070B5134A11
:10019000134BD2881A604FF080434FF4FA62114E2D
:1001A000A3F8402086B002F01BFC044602F056FC87
:1001B000054602F087FC2B4622460090314602A8F5
:1001C00005F092FF0021084602F0BAF902A802F0F9
:1001D0002BFA0A2004F0F4F8E5E700BF38120020FB
:1001E000341200200869000810B582B003F068FFDF
:1001F00002AC44F8040D0A21204604F093F8FAE713
:1002000070B50121042000F047FF1D4E1D4D1E4C0E
:100210000121084600F04CFF304600F09BFB1821FE
:1002200008220223F170194832803146B37000F081
:1002300033FB284601F0AEFB0026482244F620633B
:1002400029464FF080402A80AB80EE806E8001F01E
:100250002BF9204601F0A8FB012521464FF47A72C4
:1002600060234FF080402681E2802380658001F08A
:1002700043FA29464FF08040BDE8704001F0B0BB22
:1002800048120020281200203812002000080140E7
:1002900008B505F087FB07A3D3E9002305F0ECFBC5
:1002A0000022034B05F032FA05F0F8FD08BD00BF4F
:1002B00000407F4032582F8EE33826403A4B3B4A6D
:1002C000196841F00101196059680A405A601A68BA
:1002D00022F0847222F480321A601A6822F480229A
:1002E0001A605A6882B022F4FE0200214FF41F0007
:1002F0005A609860009101911A6842F480321A6045
:100300001A4603E0009BB3F5A06F09D0136803F40D
:1003100000330193009B01330093019B002BF1D02C
:10032000214B1B6813F4003318BF01230193019B79
:10033000012B05D01E4B4FF000629A6002B070474F
:100340001C4A194B116841F010011160116821F02D
:1003500003011160116841F0020111605A685A608E
:100360005A685A605A6842F480625A605A6822F4A5
:100370007C125A605A6842F4E8125A601A6842F0D5
:1003800080721A601A689201FCD55968064A21F0F9
:1003900003015960596841F002015960536803F044
:1003A0000C03082BFAD1C5E7001002400000FFF84B
:1003B00000ED00E000200240114A536803F00C03F6
:1003C000082B0ED153685168C3F38343C90303F16B
:1003D000020310D5526892030DD40A4A02FB03F3BC
:1003E00000E0084B064A08495268C2F303128A5CCF
:1003F000D3400B617047054A02FB03F3F2E700BFED
:100400000010024000127A000000002000093D00A8
:1004100008B5174B984206D0164B98421BD0164B86
:1004200098420CD008BD01214FF4007000F04CFE42
:1004300000214FF40070BDE8084000F045BE0121E6
:100440004FF4004000F040FE00214FF40040BDE8B2
:10045000084000F039BE01214FF4806000F034FE06
:1004600000214FF48060BDE8084000F02DBE00BFC1
:100470000024014000280140003C0140436870B462
:1004800023F470230E790D680D4C23F4807343EA36
:1004900006232B434360D1E90223856813432C4094
:1004A0004A79234343EA420383600A7CC36A013AE0
:1004B000D2B223F4700343EA0253C36270BC7047A4
:1004C000FDF7F1FF00230122027403600371437101
:1004D000C0E90233704700BF836819B923F00103F4
:1004E0008360704743F0010383607047836819B9E4
:1004F00023F480738360704743F480738360704794
:10050000C9B243681AB923EA01014160704719432F
:1005100041607047836843F008038360704700BF01
:100520008068C0F3C0007047836843F004038360B1
:10053000704700BF8068C0F380007047836819B9B6
:1005400023F4A0038360704743F4A00383607047E3
:100550008068C0F3805070474B1E416821F46041B1
:1005600041EA433141607047436819B923F400639D
:100570004360704743F4006343607047092970B4D7
:100580001CD9A1F10A0404EB4404C5680726A6405F
:10059000A34025EA06042343062AC3601AD90C2A7D
:1005A00025D90D3A02EB8202C36A1F249440914080
:1005B00023EA04021143C16270BC704701EB41069B
:1005C00004690725B540B34024EA05042343062AFD
:1005D0000361E4D8013A02EB8202436B1F2494408A
:1005E000914023EA04021143416370BC7047073A0B
:1005F00002EB8202036B1F249440914023EA040221
:100600001143016370BC7047836819B923F48013E8
:100610008360704743F4801383607047C06C80B27E
:10062000704700BF014B1868704700BF4C24014061
:10063000436819B923F480634360704743F48063CF
:1006400043607047436819B923F48053436070478F
:1006500043F4805343607047836823F4E0431943B5
:1006600081607047836819B923F400438360704741
:1006700043F4004383607047836819B923F402137D
:100680008360704743F40213836070478068C0F34F
:1006900040507047092970B41AD801EB410604692B
:1006A0000725B540B34024EA050423430361836B67
:1006B0000232C3F30154121BD2B202EB82021F2496
:1006C000944023EA040391401943816370BC70474E
:1006D000A1F10A0404EB4404C5680726A640A34020
:1006E00025EA06042343C360E1E700BF4B1E816B8C
:1006F00021F4401141EA03518163704782B0002325
:1007000001930190019B19440191019B1A6002B071
:10071000704700BF82B0002301930190019B2833F2
:1007200019440191019B186880B202B0704700BF64
:10073000436823F4400323F4007319434160704776
:1007400041628262704700BF436823F01F03194370
:1007500041607047054A936818B923F40003936019
:10076000704743F400039360704700BF00240140CA
:100770000368194214BF012000207047C94301607B
:10078000704700BF4368006810EA112004D0C9B266
:10079000194214BF01200020704700BF6FEA1121E9
:1007A0000160704708B52F4B98421CD02E4B9842E1
:1007B00023D02E4B98422AD02D4B984231D02D4B2E
:1007C000984206D02C4B984241D02C4B984232D0C4
:1007D00008BD0121402000F077FC00214020BDE849
:1007E000084000F071BC0121042000F06DFC0021E4
:1007F0000420BDE8084000F067BC0121082000F09B
:1008000063FC00210820BDE8084000F05DBC012128
:10081000102000F059FC00211020BDE8084000F035
:1008200053BC0121202000F04FFC00212020BDE816
:10083000084000F049BC01214FF4807000F044FCF6
:1008400000214FF48070BDE8084000F03DBC01215C
:10085000802000F039FC00218020BDE8084000F035
:1008600033BC00BF00080140000C014000100140F3
:100870000014014000180140001C0140002001400C
:1008800008B50121084600F01FFC00210120BDE849
:10089000084000F019BC00BF2DE9F041CD78EB060F
:1008A00048BF8B78098805F00F0748BF1F4311F038
:1008B000FF0F21D0066800234FF0010C4FF00F0806
:1008C00002E00133082B16D00CFA03F232EA0104DD
:1008D000F7D19C0008FA04FE26EA0E0607FA04F493
:1008E000282D46EA040632D0482D03F1010308BF43
:1008F0000261082BE8D10660FF2924D94668082345
:100900004FF0010C4FF00F0802E00133102B19D00B
:100910000CFA03F434EA0102F7D103F18042083AF9
:10092000920008FA02FE26EA0E0607FA02F2282DC5
:1009300046EA020609D0482D03F1010308BF04610D
:10094000102BE5D14660BDE8F0814461DDE74261EE
:10095000B7E700BF4FF6FF710222042301808270C7
:10096000C37070478368194214BF0120002070478C
:10097000806880B2704700BFC368194214BF01206D
:1009800000207047C06880B2704700BF01617047A7
:10099000416170470AB9416170470161704700BF0A
:1009A000C160704741F480338361816183618369F1
:1009B00083697047064A136810B44FF68074234069
:1009C000194341EA001111605DF8044B704700BF04
:1009D00000000140014B1860704700BF1C0020421E
:1009E0000028194B00F44012B4BFDB695B68B2F514
:1009F000401F30B484B21ED0C20213D5C0F30345E9
:100A00000322AA4023EA020343F0706319B1420DA6
:100A10001201944023430C4A0028B4BFD3615360B1
:100A200030BC7047420D120104FA02F223EA0203BD
:100A300043F07063EAE7044D6A6822F0706223F0C5
:100A400070636A60E2E700BF0000014001F0FC0350
:100A500003F1804303F5803301F0030110B49A6879
:100A600089000F248C4022EA04029A609A685DF89B
:100A7000044B00FA01F1114399607047014B186073
:100A8000704700BFDC00204208B50D4B98424FF084
:100A900001010AD04FF4800000F022FB00214FF446
:100AA0008000BDE8084000F01BBB4FF4001000F0D0
:100AB00017FB00214FF40010BDE8084000F010BB08
:100AC00000540040F0B5054687B001A80E46AC883A
:100AD00000F090FA03982C493368DFF8B8C0A1FB06
:100AE000002124F03F042404890C240C8FB23C43E1
:100AF000AC802A8822F001021204120C63452A807D
:100B00001BD85B00B0FBF3F39BB20137042B38BF5B
:100B100004232F84AB832A88B18874891B4B3089C6
:100B200042F001022A802F88B2893B4021430B43C7
:100B300002432B802A8107B0F0BDF4884BF6FF7288
:100B400094421AD003EB830303EB8303B0FBF3F36C
:100B50009BB243F48043C3F30B020AB943F0010391
:100B60004FF496720A4802FB01F1A0FB01218909AA
:100B7000013143F400432984CCE703EB4303B0FB8A
:100B8000F3F39BB2E7E700BF83DE1B43F5FBFFFFF8
:100B9000D34D6210A086010041F2883304490360FE
:100BA00000224FF48043C0E901128381704700BFE7
:100BB0000000FFBF038829B923F001031B041B0CAD
:100BC0000380704743F0010303807047838829B98D
:100BD00023F400631B041B0C8380704743F4006301
:100BE00083807047838829B923F480531B041B0C2E
:100BF0008380704743F4805383807047038829B90A
:100C000023F480731B041B0C0380704743F4807330
:100C100003807047038829B923F400731B041B0C5D
:100C20000380704743F4007303807047038829B939
:100C300023F480631B041B0C0380704743F4806320
:100C40000380704783899BB201F0FE0123F0FE030D
:100C50000B438381704700BF838929B923F00103C7
:100C60001B041B0C8381704743F001038381704791
:100C7000038829B923F040031B041B0C0380704731
:100C800043F040030380704783881AB923EA0101C7
:100C90008180704719438180704700BF018270478F
:100CA000008AC0B2704700BF22B901F0FE0189B2CC
:100CB0000182704741F0010189B20182704700BF93
:100CC00082B0002301930190019B19440191019B83
:100CD000188802B0704700BF038819B9C3F30E0328
:100CE0000380704743F40043038070470388B1F5E5
:100CF000006F1BBF23F400631B0443F400631B0C51
:100D0000038070470388B1F5005F1BBF23F40053D5
:100D10001B0443F400531B0C03807047038829B95C
:100D200023F480531B041B0C0380704743F480534F
:100D300003807047FFF7DABF038829B923F0200347
:100D40001B041B0C0380704743F020030380704793
:100D5000008B000A704700BF038829B923F01003F5
:100D60001B041B0C0380704743F010030380704783
:100D7000038829B123F080031B041B0C03807047F8
:100D800043F0800303807047838BB1F5804F1DBF14
:100D900023F480431B041B0C43F48043838370477C
:100DA000838A028B21F07F4043EA02431840401AB5
:100DB000B0FA80F040097047838A008B43EA004014
:100DC00020F07F40704700BF82B000230A0F0093DD
:100DD000019301900092009B21F07F4153B1019B50
:100DE00014330193019B1B680B4214BF01200020A8
:100DF00002B07047019B1833090C0193F2E700BF62
:100E0000C94389B2818270478388808A08409BB237
:100E100006D003F4E06313EA114314BF012000205D
:100E2000704700BFC94389B2818270470D4B0E4A9B
:100E3000196841F00101196059680A405A601A683E
:100E400022F0847222F480321A601A6822F480221E
:100E50001A605A684FF41F0122F4FE025A6099602A
:100E6000704700BF001002400000FFF80C4B1A68EA
:100E700022F480321A601A68B0F5803F22F4802292
:100E80001A6008D0B0F5802F04D11A6842F4A0226D
:100E90001A60704770471A6842F480321A607047CF
:100EA0000010024082B00023094A0193136813F432
:100EB000003F019B03F101030193019B02D1B3F5B4
:100EC000A06FF3D1024B1868C0F3404002B07047E6
:100ED00000100240034A136823F0F80343EAC000FD
:100EE0001060704700100240014B1860704700BF4F
:100EF00000004242034A536823F47C131943014320
:100F00005160704700100240014B1860704700BFED
:100F100060004242034A536823F0030318435060C1
:100F2000704700BF00100240024B586800F00C00F0
:100F3000704700BF00100240034A536823F0F003DB
:100F400018435060704700BF00100240034A5368C6
:100F500023F4E06318435060704700BF0010024064
:100F6000034A536823F4605343EAC000506070475B
:100F700000100240044A137819B923EA00001070E7
:100F8000704718431070704709100240014B1860F9
:100F9000704700BFD8004242034A536823F44043DD
:100FA00018435060704700BF00100240064B0022FB
:100FB00001281A701A7005D0042802D105221A706F
:100FC000704770471870704720100240014B18603E
:100FD000704700BF80044242024A136A18431062FD
:100FE000704700BF00100240014B1860704700BFFF
:100FF0003C0442421E4A536803F00C03082B10B411
:101000000FD153685168C3F38343C90303F102034B
:1010100029D55268920326D4164A02FB03F30360D3
:1010200001E0144B03601249134A4C68C4F30314E3
:10103000145DE34043604C68C4F30224145D23FA5A
:1010400004F484604C68C4F3C224145DE340C360BC
:1010500049685DF8044BC1F381310A44127CB3FB4B
:10106000F2F303617047054A02FB03F30360DAE71A
:101070000010024000127A001400002000093D0018
:10108000044A536919B923EA0000506170471843B4
:101090005061704700100240044A936919B923EA6D
:1010A0000000906170471843906170470010024043
:1010B000044AD36919B923EA0000D0617047184384
:1010C000D061704700100240044AD36819B923EA7E
:1010D0000000D06070471843D06070470010024095
:1010E000044A136919B923EA0000106170471843D4
:1010F0001061704700100240014B1860704700BF3C
:1011000040044242014B1860704700BF4C0042420D
:10111000014B1870704700BF071002404309012BB4
:101120000BD0022B094B0CBF1B6A5B6A00F01F003F
:1011300023FA00F000F001007047044B1B6800F038
:101140001F0023FA00F000F0010070470010024079
:10115000024A536A43F080735362704700100240A2
:10116000034B9B68184214BF01200020704700BF4A
:1011700000100240014B1870704700BF0A10024077
:1011800070B4058C1A4E25F001052D042D0C058434
:10119000048B058C24F0F304240442EA0313240C8A
:1011A0001C43B04241F00101A4B2ADB219D0114BC1
:1011B000984216D0B0F1804F13D0A3F598339842DF
:1011C0000FD003F5806398420BD003F580639842FB
:1011D00007D025F00A0343EA01050483058470BCA7
:1011E000704725F002050D430483058470BC7047E9
:1011F000002C014000340140F0B4048C1C4E24F05B
:1012000010042404240C0484078B048C120240F67E
:10121000FF4542EA03333D402B430A01B0429BB2F3
:10122000A4B292B21AD0134DA84217D0B0F1804F99
:1012300014D0A5F59835A84210D005F58065A842D0
:101240000CD005F58065A84208D024F0A00441F038
:1012500010010C4303830484F0BC704724F0200485
:1012600042F01002144303830484F0BC704700BFB3
:10127000002C01400034014008B57B4B984241D01E
:10128000B0F1804F4AD0794B984251D0784B984278
:1012900058D0784B98422BD0774B98425CD0774B04
:1012A000984263D0764B984276D0764B98427FD066
:1012B000754B984264D0754B984200F08580744B12
:1012C000984200F08D80734B984200F09380724BEF
:1012D000984200F09980714B984200F0A180704BC9
:1012E000984200F0B5806F4B984200F0A58008BD91
:1012F00001210820FFF7F4FE00210820BDE8084086
:10130000FFF7EEBE01214FF40060FFF7DDFE002184
:101310004FF40060BDE80840FFF7D6BE0121084643
:10132000FFF7DEFE00210120BDE80840FFF7D8BE30
:1013300001210220FFF7D4FE00210220BDE8084071
:10134000FFF7CEBE01210420FFF7CAFE00210420D2
:10135000BDE80840FFF7C4BE01211020FFF7C0FE22
:1013600000211020BDE80840FFF7BABE012120206F
:10137000FFF7B6FE00212020BDE80840FFF7B0BE11
:1013800001214FF48010FFF79FFE00214FF48010E1
:10139000BDE80840FFF798BE01214FF40050FFF769
:1013A00093FE00214FF40050BDE80840FFF78CBECB
:1013B00001214FF40020FFF787FE00214FF40020A9
:1013C000BDE80840FFF780BE01214FF40010FFF791
:1013D0007BFE00214FF40010BDE80840FFF774BE0B
:1013E00001214020FFF77CFE00214020BDE808409D
:1013F000FFF776BE01218020FFF772FE00218020DA
:10140000BDE80840FFF76CBE01214FF48070FFF784
:1014100067FE00214FF48070BDE80840FFF760BE12
:1014200001214FF48030FFF74FFE00214FF4803050
:10143000BDE80840FFF748BE01214FF48020FFF7C8
:1014400043FE00214FF48020BDE80840FFF73CBE7A
:1014500001214FF40030FFF737FE00214FF4003038
:10146000BDE80840FFF730BE002C014000040040FA
:1014700000080040000C0040001000400014004034
:1014800000340140004C0140005001400054014034
:1014900000180040001C00400020004000400140B7
:1014A0000044014000480140274A0388904270B43C
:1014B0009BB212D002F5006290420ED0B0F1804F84
:1014C0000BD0A2F59832904207D002F5806290428C
:1014D00003D002F58062904203D14A8823F0700362
:1014E00013431A4D8C880A88A84215D005F58065EB
:1014F000A84211D0CE8823F4407305F58C359BB2F9
:101500003343A8420380848502850CD10B7A03867D
:101510000123838270BC7047038084850285012388
:10152000838270BC70470A4B9842EFD003F540634A
:101530009842EBD003F580639842E7D003F58063CF
:101540009842E3D0EBE700BF002C014000100040C0
:1015500000340140F0B4048C0D89B1F802C00F884A
:101560001E4E24F001042404240C0484028C84887C
:10157000038B22F0020223F0730312041B04120CEB
:1015800045EA0C051B0CB04242EA0502A4B243EA4C
:1015900007030ED0124DA8420BD005F54065A842B6
:1015A00007D005F58065A84203D005F58065A842FF
:1015B0000DD14E898D89CF8922F0080232438E8861
:1015C00024F4407422F004023D4332432C43C98882
:1015D00084800383F0BC818602847047002C014024
:1015E00000340140F0B4048C0E89B1F802C00F88B9
:1015F0001D4D24F010042404240C0484038C8488DE
:10160000028B23F0200322F4E6421B0412041B0C7D
:1016100046EA0C06120C43EA061342EA0722A842E5
:101620009BB2A4B292B20AD005F50065A84206D0DA
:10163000C98884800283F0BC0187038470474D8988
:101640008E89CF8923F0800343EA05134FF6BF75D7
:101650001D408B8824F440643E4345EA031344EA6A
:1016600086049BB2A4B2E3E7002C0140F0B5048CE1
:101670000D89B1F802E00F881D4E24F48074240413
:10168000240C0484038CB0F804C0828B23F4007310
:101690001B0422F0730245EA0E041B0C120443EAF9
:1016A0000423120CB0429BB21FFA8CF542EA0702E7
:1016B00008D0104CA04205D0C988858082838187DC
:1016C0000384F0BD4C898E89CF8923F4006343EAFB
:1016D00004234FF6FF341C408B8825F440553E43CD
:1016E00044EA032345EA06149BB2A5B2E4E700BF2F
:1016F000002C014000340140F0B4048C0E89B1F894
:1017000002C00F88174D24F480542404240C048450
:10171000038C8488828B23F4005322F4E6421B045A
:1017200012041B0C46EA0C06120C43EA063342EA8A
:101730000722A8429BB2A4B292B20BD005F5006575
:10174000A84207D0C98884808283F0BCA0F84010EA
:10175000038470478D8924F4804444EA8514A4B23C
:10176000F0E700BF002C0140F8B50D460E88AA88AE
:1017700049882B890446002E49D0042E00F092801F
:10178000082E008C50D020F480500004000C2084DF
:10179000A78B4C4E208C1B0343EA022240F6FF43EA
:1017A0003B401A43B4424FEA013392B280B29BB23B
:1017B00019D006F50066B44215D0B4F1804F12D0AE
:1017C000A6F59836B4420ED006F58066B4420AD02B
:1017D00006F58066B44206D047F6FF53184008432A
:1017E00040F4805304E020F4005040F48050034360
:1017F000A2832384A38BEA8823F440631B041B0C7D
:10180000A383A38B43EA02239BB2A383F8BDFFF714
:10181000B7FC038BEA8823F00C031B041B0C038327
:10182000038B13430383F8BD20F480700004000C85
:101830002084A08B234F268C80B220F0F30002433B
:1018400042EA03130802BC429BB2B2B280B217D084
:101850001D4EB44214D0B4F1804F11D0A6F5983685
:10186000B4420DD006F58066B44209D006F5806614
:10187000B44205D022F42062114341F4807204E0A6
:1018800022F4007242F480720243A3832284A38B69
:10189000EA8823F00C031B041B0CA383A38B1343C4
:1018A000A383F8BDFFF7A8FC038BEA8823F4406309
:1018B0001B041B0C0383038B43EA02239BB20383A9
:1018C000F8BD00BF002C014000340140F8B50D46C2
:1018D0004988AA88B5F800C02B89002914BF0026C2
:1018E0000226012A044614BF01270227BCF1000F7B
:1018F0001ED0FFF781FC028BE9882B8922F440621D
:101900001204120C0283008B40EA012080B23A4696
:10191000208331462046FFF733FC238BEA8823F0EF
:101920000C031B041B0C2383238B13432383F8BD5D
:10193000FFF726FC028B2B89E88822F00C021204A8
:10194000120C2283228B104320833A4631462046D4
:10195000FFF752FC238BEA8823F440631B041B0C23
:101960002383238B43EA02239BB22383F8BD00BF6A
:1019700070B40B884C888A88CE880D892343134322
:101980004C898A8933432B4323431343A0F84430C3
:1019900070BC704700234FF6FF7282800380C380C3
:1019A00043800372704700BF00230380438083801D
:1019B000C380038143818381C38170470023012257
:1019C000828003804380C3800381704700230380AB
:1019D00043808380C380038143818381704700BF3C
:1019E000038829B923F001031B041B0C03807047F3
:1019F00043F0010303807047B0F8443021B9C3F3CA
:101A00000E03A0F84430704743F40043A0F844307C
:101A1000704700BF83891AB923EA010181817047A9
:101A200019438181704700BF818270470A43A0F843
:101A300048207047FFF7EEBF038923F007031B041C
:101A40001B0C0381704700BF038923F070031B0444
:101A50001B0C19430181038943F00703038170477D
:101A6000602938B50D46044611464FF001020DD0ED
:101A7000FFF786FB218921F070010904090C294335
:101A80002181238943F00703238138BDFFF7B4FB8D
:101A9000F0E700BF10B4048942EA03231943E4B21B
:101AA000214389B2018103895DF8044B23F0770358
:101AB0001B041B0C43F077030381704710B40489A7
:101AC00042EA03231943E4B2214389B20181038925
:101AD0005DF8044B43F480430381704710B40489DC
:101AE0000A43E4B242EA032323439BB203815DF835
:101AF000044B704701858282704700BF038823F042
:101B000070031B041B0C194301807047038923F0E9
:101B100070031B041B0C19430181704770B442EA27
:101B200003120589038B048C0A4E24F0220425F04D
:101B3000070524041E402D04240C2D0C46F480734C
:101B400014432943A4B243F00103018103830484B5
:101B500070BC7047FCFCFFFF038B23F070031B0479
:101B60001B0C194301837047038B23F4E0431B04D0
:101B70001B0C43EA012189B201837047838B23F058
:101B800070031B041B0C194381837047838B23F460
:101B9000E0431B041B0C43EA012189B28183704797
:101BA000038829B923F080031B041B0C03807047B2
:101BB00043F0800303807047838829B923F004032E
:101BC0001B041B0C8380704743F004038380704721
:101BD000838829B923F008031B041B0C83807047FA
:101BE00043F0080383807047838829B923F00103F9
:101BF0001B041B0C8380704743F0010383807047F4
:101C0000038B23F008031B041B0C1943018370474B
:101C1000038B23F400631B041B0C43EA012189B2EC
:101C200001837047838B23F008031B041B0C1943AB
:101C300081837047838B23F400631B041B0C43EAEE
:101C4000012189B281837047038B23F004031B04B5
:101C50001B0C194301837047038B23F480631B041F
:101C60001B0C43EA012189B201837047838B23F067
:101C700004031B041B0C194381837047838B23F4DB
:101C800080631B041B0C43EA012189B281837047E6
:101C9000038B23F080031B041B0C19430183704743
:101CA000038BC3F30E0343EA012189B2018370471A
:101CB000838B23F080031B041B0C19438183704723
:101CC000838BC3F30E0343EA012189B281837047FA
:101CD000038C23F002031B041B0C1943018470477F
:101CE000038C23F008031B041B0C19430184704769
:101CF000038C23F020031B041B0C43EA011189B25F
:101D000001847047038C23F080031B041B0C43EAFF
:101D1000011189B201847047038C23F400731B0402
:101D20001B0C43EA012189B201847047038C23F420
:101D300000631B041B0C43EA012189B20184704734
:101D4000038C23F400531B041B0C43EA013189B2BA
:101D500001847047038C10B401248C4023EA0403EF
:101D60000384038C5DF8044B02FA01F1194389B234
:101D700001847047038C10B404248C4023EA0403CC
:101D80000384038C5DF8044B02FA01F1194389B214
:101D900001847047038C10B401248C4023EA0403AF
:101DA00021F008040384183074B10439C1F34E01E2
:101DB00012020B585DF8044B23F4E0430B500B5810
:101DC00092B21A430A50704749085DF8044B0B5809
:101DD00023F070030B500B581A430A50704700BF92
:101DE000038829B923F002031B041B0C03807047EE
:101DF00043F0020303807047038829B923F00403EA
:101E00001B041B0C0380704743F0040303807047DE
:101E1000838829B923F080031B041B0C838070473F
:101E200043F0800383807047038823F008031B047A
:101E30001B0C03800388194301807047838823F0BB
:101E400070031B041B0C83808388194381807047B7
:101E5000038923F007031B041B0C03810389194327
:101E600001817047038923F080031B041B0C03814D
:101E700003891943018170478184704781857047C8
:101E8000818670470187704781877047A0F84010AE
:101E9000704700BF038B23F00C031B041B0C038350
:101EA000038B194301837047038B23F440631B04A6
:101EB0001B0C0383038B43EA012189B20183704722
:101EC000838B23F00C031B041B0C8383838B19432C
:101ED00081837047838B23F440631B041B0C838333
:101EE000838B43EA012189B281837047038823F4FD
:101EF00040731B041B0C0380038819430180704747
:101F0000808E7047008F7047808F7047B0F8400018
:101F1000704700BF808C7047008D7047038A19425C
:101F200014BF012000207047C94389B20182704765
:101F3000038A828911EA030092B203D00A4214BFD5
:101F400001200020704700BFC94389B20182704759
:101F500008B5264B984218D0254B984221D0254BE6
:101F600098422AD0244B984233D0244B984200D038
:101F700008BD01214FF48010FFF7B2F800214FF4A3
:101F80008010BDE80840FFF7ABB801214FF4804056
:101F9000FFF79AF800214FF48040BDE80840FFF7B2
:101FA00093B801214FF40030FFF79AF800214FF465
:101FB0000030BDE80840FFF793B801214FF48020BE
:101FC000FFF78EF800214FF48020BDE80840FFF7AE
:101FD00087B801214FF40020FFF782F800214FF469
:101FE0000020BDE80840FFF77BB800BF0038014083
:101FF0000044004000480040004C004000500040B9
:10200000028A294B70B592B20446C888274E22F442
:10201000405202430D4689892282A089AA88034042
:10202000288913436A8903431343A381A38A9BB27C
:1020300023F440730B4386B0A38201A8FEF7DAFFB6
:10204000DDE90330A1892A68A589B44208BF0346A7
:102050001748090403EB83034CBF5200920003EBC3
:102060008303B3FBF2F3A0FB03214909642202FBC3
:1020700011332A044FEA01110AD41B013233A0FBA9
:102080000323C3F343130B439BB2238106B070BDFC
:10209000DA003232A0FB0232C2F3421242EA0103FA
:1020A0009BB2238106B070BDF3E9FFFF0038014009
:1020B0001F85EB5100234FF416514FF4402201606D
:1020C000C0E901328381704730B40B884D888C8819
:1020D000028AC9882B43234392B20B4322F47062D5
:1020E0001343038230BC7047002303804380838006
:1020F000C3807047838929B923F400531B041B0C48
:102100008381704743F400538381704710B401F01A
:102110001F04C1F342110123012903FA04F311D072
:1021200002290CBF1030143032B902685DF8044B3C
:1021300022EA03030360704702685DF8044B13430F
:10214000036070470C30EFE7838A1AB923EA010174
:102150008182704719438182704700BF038A23F050
:102160000F031B041B0C0382038A1943018270476F
:10217000838923F400631B041B0C83818389194327
:1021800081817047838929B923F002031B041B0C4A
:102190008381704743F0020383817047038A23F0F1
:1021A00020031B041B0C0382038A1943018270471E
:1021B000038A29B923F480431B041B0C0382704754
:1021C00043F4804303827047C1F308018180704764
:1021D0008088C0F308007047838943F0010383813E
:1021E000704700BF038BDBB20383038B43EA0121FB
:1021F00001837047038B03F47F430383038B1943ED
:1022000001837047838A29B923F020031B041B0C28
:102210008382704743F0200383827047838A29B901
:1022200023F010031B041B0C8382704743F0100340
:1022300083827047838A29B923F008031B041B0C8F
:102240008382704743F0080383827047838919B9FA
:10225000C3F30E038381704743F4004383817047C7
:10226000838A29B923F400631B041B0C8382704703
:1022700043F4006383827047838A23F004031B04C2
:102280001B0C8382838A194381827047838A29B910
:1022900023F002031B041B0C8382704743F00203EC
:1022A000838270470388194214BF012000207047C1
:1022B000C94389B201807047C1F3421210B40123AF
:1022C00001F01F04012A03FA04F316D0022A0CBFFE
:1022D000028A828A1340028892B253B10123090A0A
:1022E00003FA01F10A4214BF184600205DF8044BBE
:1022F000704718465DF8044B704782891340EAE73F
:10230000090A012303FA01F1C94389B20180704728
:1023100040F0BF60024B40F40030D860704700BF0F
:1023200000ED00E0F0B40178C378012401F01F0251
:1023300094404E092BB920360E4B43F82640F0BC92
:1023400070470D4A4378D56882780A4FE843C0F356
:102350000220C0F1040503FA05F50F23C340134022
:102360002B4339441B01DBB281F8003347F8264088
:10237000F0BC704700E100E000ED00E021F06041BA
:1023800021F07F01014B01439960704700ED00E0AF
:10239000044A136919B923EA000010617047184311
:1023A0001061704700ED00E0044A136804280CBF78
:1023B00043F0040323F004031360704710E000E0CF
:1023C00030B5012187B00846FEF766FE01210220E4
:1023D000FEF706FB01214FF40010FEF769FE012114
:1023E0000820FEF759FE124C124803221C2301A9B3
:1023F0004FF44075ADF804508DF806208DF8073085
:102400000D4DFEF749FA0D4B02934FF080624FF4E9
:10241000804320460121CDE90352ADF81430FEF788
:10242000C9FB204602A9FEF74DFB07B030BD00BF37
:1024300000540040000C01400000FFBFA0860100D6
:1024400070B505460E461748174C0121FEF7D6FB1E
:1024500021461448FEF7A4FC0028F9D0314600229A
:102460001048124CFEF720FC21460E48FEF798FC5F
:102470000028F9D029460B480D4CFEF70FFC2146E9
:102480000848FEF78DFC0028F9D00648084D0121C8
:102490000446FEF7BFFB29462046FEF781FC0028D4
:1024A000F9D070BD00540040010003008200070015
:1024B0008400070038B5104C237843F00403054628
:1024C0004E2118462370FFF7BBFF322000F0E6F8DC
:1024D000207840EA0510C0B24E21FFF7B1FF237803
:1024E00003F0FB0318464E212370FFF7A9FF3220AB
:1024F000BDE8384000F0D2B8BC00002010B50D4A4D
:102500000446107871B140F0010318464E21137053
:10251000FFF796FF2009FFF7CDFF2046BDE81040EA
:10252000FFF7C8BF00F0FE0318464E211370FFF7F7
:1025300087FFEFE7BC0000200121FFF7DFBF00BFEE
:1025400003291DD8DFE801F017100902543060F0AC
:102550007F00C0B20021FFF7D1BF143060F07F00D0
:10256000C0B20021FFF7CABF403060F07F00C0B2A8
:102570000021FFF7C3BF40F080000021FFF7BEBF7E
:10258000704700BF10B50F2000F06EF80320FFF772
:1025900091FF042000F068F80320FFF78BFF642010
:1025A00000F07CF80320FFF785FF012000F05CF8C5
:1025B0000220FFF77FFF012000F056F800212820BD
:1025C000FFF79CFF012000F04FF800210C20FFF7DF
:1025D00095FF012000F048F80C4C00210620FFF781
:1025E0008DFF012000F040F8237843F008031846DF
:1025F0004E212370FFF724FF237803F0FD0323709F
:1026000018464E21BDE81040FFF71ABFBC0000205D
:1026100008B501200021FFF771FF40F2DC50BDE852
:10262000084000F03BB800BF10B50446007830B158
:102630000121FFF763FF14F8010F0028F8D110BD46
:1026400000F00700C00038B540F040000D46002102
:10265000FFF754FF6C1E073514F8010F0121FFF737
:102660004DFFAC42F8D138BD10B586B0044601A884
:10267000FEF7C0FC029B084AA2FB03235B0B04FB92
:1026800003F30093009B2BB1009B013B0093009B45
:10269000002BF9D106B010BD5917B7D110B586B0CF
:1026A000044601A8FEF7A6FC029B084AA2FB0323EE
:1026B0009B0D04FB03F30093009B2BB1009B013B9C
:1026C0000093009B002BF9D106B010BD6BCA5F6B65
:1026D00000B587B001A8FEF78DFC029B009300981F
:1026E00007B05DF804FB00BFF8B5C7B2C0F307261A
:1026F000C0F30745040E40211448FFF7D3FD00281E
:10270000F9D039461148FFF75FFD40210F48FFF728
:10271000C9FD0028F9D031460C48FFF755FD40218E
:102720000A48FFF7BFFD0028F9D029460748FFF700
:102730004BFD40210548FFF7B5FD0028F9D02146A3
:102740000248BDE8F840FFF73FBD00BF0038014038
:1027500010B44218415C93785478D0781B0403EB92
:1027600004230B4403EB00605DF8044B704700BF8B
:1027700010B5012182B00820FEF78EFC01A8FEF7FB
:10278000E9F803244FF48042102301A905488DF88D
:102790000640ADF804208DF80730FEF77DF802B052
:1027A00010BD00BF000C014010B5064C2068FFF7BB
:1027B0009BFF2068FFF798FF2068BDE81040FFF7F7
:1027C00093BF00BF2800002030B5012187B005204D
:1027D000FEF762FC01214FF48040FEF75DFC204CC7
:1027E000204D18238DF803304FF4007320466946BE
:1027F000ADF8003003238DF80230FEF74DF869463E
:10280000204604224FF4806300248DF80320ADF8A5
:102810000030FEF741F84FF4402328464FF4E132F0
:1028200002A90493CDE90224ADF81440FFF7E8FBB8
:102830002846012240F22551FFF768FC2846012175
:10284000FFF758FC2522012301A88DF806408DF8DA
:1028500004208DF80730FFF765FD07B030BD00BFDD
:10286000000801400038014010B540F2255182B007
:102870001B48FFF721FD08B902B010BD1848194CDC
:10288000FFF7A6FCC0B28DF807002378012B15D006
:10289000154B16481A789DF80710D2B2C9B2815468
:1028A0001A780132D2B21A701A78642A0ED80178D6
:1028B0001A7891420ED00E4BC8221A71084840F285
:1028C000255102B0BDE81040FFF71ABD00221A7072
:1028D0002270F3E70021012219702270EEE700BF99
:1028E00000380140BD000020C4120020601200200A
:1028F00028000020024B5B78012B00D0704753E783
:102900006012002010B5074C2378012B00D010BDB9
:10291000054B5B78012B02D00023237010BDFFF71D
:1029200043FFF9E7BD0000206012002038B50B78A6
:102930000D4604466BB140212046FFF7B3FC00284A
:10294000F9D029782046FFF73FFC15F8013F002B0E
:10295000F1D138BD38B501214FF40070FEF79CFB72
:102960001B48FDF7F7FF1B4A936943F0040393618B
:102970004FF40040FEF710FB174B18484FF460244B
:10298000002219469C60022501241D741A601A71E8
:10299000DA605C71FDF772FD10482146FDF79CFD81
:1029A0000E48FDF7B7FD0D48FDF7BAFD0028FAD136
:1029B0000A48FDF7B9FD0948FDF7BCFD04460028AB
:1029C000F9D101210548FDF787FD204638BD00BF3C
:1029D0004812002000100240C812002000240140CC
:1029E00038B501210420FEF757FB1748174CFDF7B7
:1029F000B1FF174B174A1968002119601868024384
:102A00001A60DA6801252A43DA600A20E162656308
:102A1000FFF72AFE20462946FDF790FD2046036871
:102A20009B07FCD500210948FDF788FD07491923BC
:102A30000020CA6C013B1044FBD1074BA3FB0030C4
:102A4000C0F3CF0038BD00BF481200200024014071
:102A500000080140030304001F85EB5138B5164BF5
:102A6000164C1A68002119601A6842F4403242F08C
:102A700034021A60DA6802252A43DA600A20E16229
:102A80006563FFF7F1FD20460121FDF757FD204664
:102A900003689B07FCD500210848FDF74FFD074957
:102AA00019230020CA6C013B1044FBD1044BA3FB4B
:102AB0000030C0F3CF0038BD0008014000240140C1
:102AC0001F85EB5138B5134B134C1A680021196060
:102AD0001A6842F4515242F008021A60DA6801257D
:102AE0002A43DA600A20E1626563FFF7BDFD2946EB
:102AF0002046FDF723FD23689B07FCD500210648EF
:102B0000FDF71CFDE06C40F6B8339842D4BF0020BE
:102B1000012038BD000801400024014000F10803F5
:102B20004FF0FF310022816002604360C0E903334F
:102B3000704700BF00230361704700BF436802680D
:102B400010B49C688C609C684B6001326160996035
:102B50005DF8044B08610260704700BF30B40D6837
:102B60006B1C11D000F1080200E01A4653681C6883
:102B7000AC42FAD904684B60013499608A605160B4
:102B80000861046030BC704702695368F2E700BF17
:102B900042688168036910B4916081685C684A602A
:102BA0001A68844208BF5960013A002101611A6025
:102BB00018685DF8044B704770B51646026C856B5B
:102BC000044632B906680135002E2DD00020A563D9
:102BD00070BD86B9806803F07BFAA368216C6268D7
:102BE0000B44934205F10105A360EFD32368A36072
:102BF0003046A56370BDC06803F06AFA226CE368D2
:102C00002168524213448B42E36002D263681A4443
:102C1000E260022E03D001350020A56370BD002DB7
:102C2000D4D101250020D2E7406801F05DFE666046
:102C3000CDE700BF026C72B10B46C16810B44468A6
:102C40001144A142C16024BF0168C1605DF8044B1A
:102C5000184603F03DBA704770B5846C82B001909D
:102C60009CB1A26BE36B9A4208D34FF0A00383F3AD
:102C70001188BFF36F8FBFF34F8FFEE7A26B9342B4
:102C80000CD80026304602B070BD4FF0A00383F38D
:102C90001188BFF36F8FBFF34F8FFEE70A4694F89A
:102CA000455001A92046FFF787FF6DB26B1C064611
:102CB00004D06B1C5BB284F84530E3E7636A002BF9
:102CC000E0D004F1240001F0B1FC002818BF012677
:102CD000D8E700BF70B5054602F076FB95F8454091
:102CE00064B2002C1CDD05F1240606E0FFF7B4FFFA
:102CF00078B9013CE3B25CB293B1AB6C00212846D9
:102D0000002BF3D16B6A304653B101F08FFC0028E1
:102D1000EFD0013C01F070FDE3B25CB2002BECD1CE
:102D2000FF2385F8453002F071FB02F04DFB95F86A
:102D3000444064B2002C16DD2B69A3B105F11006E6
:102D400005E0013CE3B25CB26BB12B695BB130468C
:102D500001F06CFC0028F4D0013C01F04DFDE3B221
:102D60005CB2002BF1D1FF2385F84430BDE8704000
:102D700002F04CBB38B5E0B104460D4602F024FB2E
:102D8000D4E90F132268A26001FB03F1CB1A1344AC
:102D900000200A44FF21A063E36084F844106260CD
:102DA00084F8451075B92369ABB902F02FFB0120F7
:102DB00038BD4FF0A00383F31188BFF36F8FBFF3CB
:102DC0004F8FFEE704F11000FFF7A8FE04F1240086
:102DD000FFF7A4FEE9E704F1100001F027FC00284A
:102DE000E3D0044B4FF080521A60BFF34F8FBFF314
:102DF0006F8FDAE704ED00E040B94FF0A00383F3F2
:102E00001188BFF36F8FBFF34F8FFEE770B5064693
:102E10000D4651B101FB00F04C3002F0EDFB0446D1
:102E200098B100F14C03036005E04C2002F0E4FB94
:102E3000044650B12460C4E90F6501212046FFF724
:102E400099FF0023A364204670BD0024204670BD76
:102E500040B94FF0A00383F31188BFF36F8FBFF326
:102E60004F8FFEE7884208D24FF0A00383F311880A
:102E7000BFF36F8FBFF34F8FFEE710B502220C46F2
:102E80000021FFF7B9FF00B1846310BD2DE9F047C1
:102E900084B00192002800F09D80002900F08D8010
:102EA000022B0BD1C26B012A08D04FF0A00383F391
:102EB0001188BFF36F8FBFF34F8FFEE704461E46A6
:102EC000894601F0A7FC50B9019F4FB14FF0A00314
:102ED00083F31188BFF36F8FBFF34F8FFEE7002797
:102EE000DFF830A14FF0000807E002F08FFA20462B
:102EF000FFF7F0FE01F0A0F9012702F065FAA26BDE
:102F0000E36B9A423FD3022E3DD0019D002D6AD043
:102F100017B902A801F024FC02F078FA01F0C6F813
:102F200002F052FA94F84430FF2B08BF84F8448032
:102F300094F84530FF2B08BF84F8458002F066FA0C
:102F400001A902A801F016FC002855D102F03CFAB4
:102F5000A26BE36B9A42C8D102F058FA019904F1CE
:102F6000100001F0FDFA2046FFF7B4FE01F064F90D
:102F70000028C1D14FF08053CAF80030BFF34F8F03
:102F8000BFF36F8FB8E7494632462046FFF714FE7D
:102F9000A36C63B331462046FFF75EFE38B11D4B8C
:102FA0004FF080521A60BFF34F8FBFF36F8F02F064
:102FB0002DFA012004B0BDE8F087026C002A3FF42E
:102FC0006FAF4FF0A00383F31188BFF36F8FBFF390
:102FD0004F8FFEE74FF0A00383F31188BFF36F8F8D
:102FE000BFF34F8FFEE702F011FA2846E2E7636A6B
:102FF0004BB90028D3D1DAE72046FFF76BFE01F08A
:103000001BF90020D6E704F1240001F00FFB002893
:10301000C5D1CCE704ED00E010B502460021012047
:10302000FFF7EAFE044638B10023C0E90033C3606D
:103030001A461946FFF72AFF204610BD38B538B1A9
:103040004568044601F0E0FB85420AD0002038BD07
:103050004FF0A00383F31188BFF36F8FBFF34F8F3F
:10306000FEE7E368013BE3600BB1012038BD204679
:103070001A461946FFF70AFF012038BD2DE9F8432B
:10308000002835D041B3022B0BD1C46B012C08D0E2
:103090004FF0A00383F31188BFF36F8FBFF34F8FFF
:1030A000FEE704461F469046894602F079FAEFF3A0
:1030B00011864FF0A00383F31188BFF36F8FBFF326
:1030C0004F8FA26BE36B9A421BD3022F19D00020C3
:1030D00086F31188BDE8F883046C002CD3D04FF040
:1030E000A00383F31188BFF36F8FBFF34F8FFEE709
:1030F0004FF0A00383F31188BFF36F8FBFF34F8F9F
:10310000FEE794F8455049466DB23A462046FFF72F
:1031100053FD6B1C08D06B1C5BB284F8453001205A
:1031200086F31188BDE8F883A36C63B13946204665
:10313000FFF792FD0028F2D0B8F1000FEFD0012088
:10314000C8F80000C4E7636A002BE8D004F124004B
:1031500001F06CFA0028EFD1E1E700BF70B3036C17
:1031600043B14FF0A00383F31188BFF36F8FBFF318
:103170004F8FFEE7036853B370B504460E4602F066
:103180000FFAEFF311854FF0A00383F31188BFF31B
:103190006F8FBFF34F8FA26BE36B934230D994F8DC
:1031A000453001325BB2A2635A1C1CD001335BB2C2
:1031B00084F84530012085F3118870BD4FF0A003DD
:1031C00083F31188BFF36F8FBFF34F8FFEE7436820
:1031D000002BD1D04FF0A00383F31188BFF36F8F82
:1031E000BFF34F8FFEE7A36C63B120460021FFF7CA
:1031F00033FD0028DED0002EDCD001203060DAE77D
:103200000020D8E7636A002BD4D004F1240001F039
:103210000DFA0028EFD1CDE72DE9F04385B00192FA
:10322000002800F09980002900F0898004460F46AC
:1032300001F0F0FA50B9019B43B14FF0A00383F3C2
:103240001188BFF36F8FBFF34F8FFEE702F0BCF81A
:10325000A56B002D48D1019B002B6AD002A801F07C
:103260007FFADFF824912E4604F1240812E002F0E0
:10327000ABF8A36B002B46D002F0C8F82046FFF74E
:1032800029FD00F0D9FF02F09FF8A56B65BB019BFB
:10329000002B4ED002F0BAF800F008FF02F094F8CC
:1032A00094F84430FF2B08BF84F8446094F845300C
:1032B000FF2B08BF84F8456002F0A8F801A902A816
:1032C00001F058FA0028D2D02046FFF703FD00F0A5
:1032D000B3FF02F079F8A36B5BB302F097F802F04A
:1032E00073F8A56B002DD2D039462046013DFFF77B
:1032F000A1FCA5632369002B37D102F087F80120D8
:1033000005B0BDE8F08302F081F80199404601F074
:1033100027F92046FFF7DEFC00F08EFF0028DED103
:103320004FF08053C9F80030BFF34F8FBFF36F8F5A
:10333000D5E702F06BF8002005B0BDE8F083036C20
:10334000002B3FF473AF4FF0A00383F31188BFF35A
:103350006F8FBFF34F8FFEE74FF0A00383F3118809
:10336000BFF36F8FBFF34F8FFEE704F1100001F042
:103370005DF90028C1D0044B4FF080521A60BFF3B2
:103380004F8FBFF36F8FB8E704ED00E02DE9F041F8
:1033900084B0019150B1056C8DB14FF0A00383F35F
:1033A0001188BFF36F8FBFF34F8FFEE74FF0A0037D
:1033B00083F31188BFF36F8FBFF34F8FFEE704468F
:1033C00001F028FA50B9019D45B14FF0A00383F3F5
:1033D0001188BFF36F8FBFF34F8FFEE72E46DFF8E4
:1033E000488100270CE001F0EFFFA36B002B39D0E0
:1033F00002F00CF82046FFF76DFC00F01DFF0126DF
:1034000001F0E2FFA36B002B71D1019B002B61D077
:1034100016B902A801F0A4F901F0F8FF00F046FE89
:1034200001F0D2FF94F84430FF2B08BF84F84470B9
:1034300094F84530FF2B08BF84F8457001F0E6FF93
:1034400001A902A801F096F90028CCD02046FFF788
:1034500041FC00F0F1FE01F0B7FFA36BDBB101F01E
:10346000D5FFCCE701F0D2FF2368DBB1019904F16D
:10347000240001F075F82046FFF72CFC00F0DCFE7C
:103480000028BCD14FF08053C8F80030BFF34F8FF5
:10349000BFF36F8FB3E701F0B9FF65B9284604B0F9
:1034A000BDE8F08101F090FF606801F0C3F90546C6
:1034B00001F0ACFFDAE701F087FF616A19B1236B15
:1034C0001968C1F10501606801F064FA002501F096
:1034D0009DFFE3E745B14FF0A00383F31188BFF3ED
:1034E0006F8FBFF34F8FFEE701F090FFD6E72268A2
:1034F000013BA36312B901F0BDFA606023691BB9F7
:1035000001F084FF0125C9E704F1100001F08EF8F5
:103510000028F5D0044B4FF080521A60BFF34F8F54
:10352000BFF36F8FECE700BF04ED00E080B170B532
:10353000466804460D4601F067F9864211D02946D7
:103540002046FFF723FF10B1E3680133E36070BD4D
:103550004FF0A00383F31188BFF36F8FBFF34F8F3A
:10356000FEE7E3680133E360012070BD2DE9F0411F
:1035700084B00192002800F09880002900F0888033
:1035800004460E4601F046F950B9019B43B14FF095
:10359000A00383F31188BFF36F8FBFF34F8FFEE754
:1035A00001F012FFA56B002D47D1019B002B69D0C4
:1035B00002A801F0D5F8DFF8248104F1240712E015
:1035C00001F002FFA36B002B46D001F01FFF204645
:1035D000FFF780FB00F030FE01F0F6FEA36B63BB4B
:1035E000019B002B4ED001F011FF00F05FFD01F0B8
:1035F000EBFE94F84430FF2B08BF84F8445094F855
:103600004530FF2B08BF84F8455001F0FFFE01A9AB
:1036100002A801F0AFF80028D2D02046FFF75AFBED
:1036200000F00AFE01F0D0FEA36B5BB301F0EEFEEA
:1036300001F0CAFEA36B002BD2D031462046E568CC
:10364000FFF7F8FA636AE560002B37D101F0DEFE80
:10365000012004B0BDE8F08101F0D8FE01993846A0
:1036600000F07EFF2046FFF735FB00F0E5FD002867
:10367000DED14FF08053C8F80030BFF34F8FBFF357
:103680006F8FD5E701F0C2FE002004B0BDE8F081E5
:10369000036C002B3FF474AF4FF0A00383F3118849
:1036A000BFF36F8FBFF34F8FFEE74FF0A00383F39D
:1036B0001188BFF36F8FBFF34F8FFEE704F1240033
:1036C00000F0B4FF0028C1D0044B4FF080521A60C4
:1036D000BFF34F8FBFF36F8FB8E700BF04ED00E07B
:1036E0002DE9F843B0B171B305469046894601F023
:1036F00057FFEFF311874FF0A00383F31188BFF357
:103700006F8FBFF34F8FAC6B6CB9204687F3118876
:10371000BDE8F8834FF0A00383F31188BFF36F8FE8
:10372000BFF34F8FFEE795F844604946284676B2CE
:10373000FFF780FA013C731CAC6310D0731C5BB2C2
:1037400085F844300DE0036C002BCDD04FF0A00382
:1037500083F31188BFF36F8FBFF34F8FFEE72B69A1
:103760000BB90120D2E705F1100000F05FFF00283F
:10377000F7D0B8F1000FF4D00120C8F80000C5E779
:10378000E8B1036C69B31BB370B504460D4601F094
:1037900007FFEFF311864FF0A00383F31188BFF307
:1037A0006F8FBFF34F8FA06B30B129462046E5687D
:1037B000FFF740FAE560012086F3118870BD4FF0F5
:1037C000A00383F31188BFF36F8FBFF34F8FFEE722
:1037D0004FF0A00383F31188BFF36F8FBFF34F8FB8
:1037E000FEE7002BF4D04FF0A00383F31188BFF362
:1037F0006F8FBFF34F8FFEE740B94FF0A00383F305
:103800001188BFF36F8FBFF34F8FFEE710B50446EB
:1038100001F0DAFDA46B01F0F9FD204610BD00BFF8
:1038200040B94FF0A00383F31188BFF36F8FBFF34C
:103830004F8FFEE710B5044601F0C6FDA36BE46BA5
:10384000E41A01F0E3FD204610BD00BF08B1806B13
:1038500070474FF0A00383F31188BFF36F8FBFF35E
:103860004F8FFEE740B94FF0A00383F31188BFF3F9
:103870006F8FBFF34F8FFEE701F01ABF20B1806B4F
:10388000B0FA80F0400970474FF0A00383F311882D
:10389000BFF36F8FBFF34F8FFEE700BF30B1836B75
:1038A000C06BC01AB0FA80F0400970474FF0A00317
:1038B00083F31188BFF36F8FBFF34F8FFEE700BF15
:1038C00070B504460D46164601F07EFD94F844306E
:1038D000FF2B04BF002384F8443094F84530FF2BBD
:1038E00004BF002384F8453001F090FDA36B2BB991
:1038F0003246294604F1240000F078FE2046BDE857
:103900007040FFF7E7B900BF00220421FFF774BA47
:1039100038B504460D4601F057FDA36C23B10024D1
:1039200001F074FD204638BDA26B2AB9A5640124BC
:1039300001F06CFD204638BD1C4601F067FD2046B5
:1039400038BD00BF38B5836C8B4201D0002038BD34
:10395000856B002DFAD1044601F036FDA56401F017
:1039600055FD012038BD00BF00B583B002AB002279
:1039700043F8042D0A461946FFF74EFC019803B0A0
:103980005DF804FB00B583B002A9002241F8042DC4
:10399000FFF7A6FE019803B05DF804FB80B5134C59
:1039A000134F4FF0805614E001F00EFD2369DD68DF
:1039B000281DFFF7EDF8A369013BA3612368013BD4
:1039C000236001F023FD286B01F072FE284601F010
:1039D0006FFE2368002BE7D1E369012BF9D93E6024
:1039E000BFF34F8FBFF36F8FF3E700BFC00000201E
:1039F00004ED00E0044BD3F88020D268D26852680E
:103A0000C3F88420704700BFC0000020F8B51F4CE9
:103A1000D4F88850D4F88C300646181D0F46FFF7AE
:103A2000B7F850B9D4F88C20D4F89030D16A01227C
:103A30008A4023EA0203C4F89030731C1BD0D4F8E8
:103A40008C30AD195D600DD2D4F88000D4F88C10A4
:103A50000431FFF783F8D4F88430AB4288BFC4F850
:103A60008450F8BDD4F8A800D4F88C10BDE8F84014
:103A70000431FFF773B8002FE1D0D4F88C1004485C
:103A80000431BDE8F840FFF759B800BFC00000207E
:103A9000540100202DE9F84F4FEA820806464046BF
:103AA00089461F460B9D01F0A7FD002800F0C98044
:103AB0008246502001F0A0FD0446002800F08A80D4
:103AC000A8F10408D04428F00708C0F830A009F194
:103AD000FF3309F1090100F1330213F8010F02F875
:103AE000010F187808B18B42F7D10A9B042B28BF2D
:103AF00004234FF0000B04F1040AE36223645046F0
:103B000084F83DB0C4F844B09946FFF713F804F1C7
:103B10001800FFF70FF8C9F10503C4F848B0A36116
:103B2000246184F84CB064623A463146404601F064
:103B30000FFC206005B12C60434D01F045FCAB69E2
:103B40000133AB61D5F88C30002B3AD0D5F8E820A2
:103B5000E36A72B305F11C08012606FA03F703EBCA
:103B60008303D5F8902008EB8300D5F8EC3051465C
:103B700017439A19C5F8EC20C5F89070FEF7DEFFE0
:103B800001F044FCD5F8E83083B1D5F88C20E36A25
:103B9000D26A9A420AD22D4B4FF080521A60BFF37C
:103BA0004F8FBFF36F8F3046BDE8F88F3046BDE8CA
:103BB000F88FD5F88C20D26A9A4298BFC5F88C400D
:103BC000C8E7C5F88C40AB69012B0AD0E36A05F160
:103BD0001C08C1E7504601F06BFD4FF0FF30BDE817
:103BE000F88F05F11C084046FEF798FF05F13000FC
:103BF000FEF794FF05F14400FEF790FF05F1580031
:103C0000FEF78CFF05F1AC0705F16C00FEF786FFAF
:103C100005F1C0063846FEF781FF3046FEF77EFF0D
:103C200005F1D400FEF77AFF281DFEF777FF05F1B6
:103C30009400FEF773FFC5F88070E36AC5F8A860CA
:103C40008AE74FF0FF30B2E7C000002004ED00E04B
:103C500070B50546334C01F0B7FB002D4AD02E1D40
:103C60003046FEF795FF30B9E96A01EB810304EBBA
:103C70008303DB694BB3AB6A1BB105F11800FEF798
:103C800087FFD4F8EC30D4F88C200133AA42C4F872
:103C9000EC3035D0A369286B013BA36101F008FD2E
:103CA000284601F005FDD4F880301B682BBB4FF08F
:103CB000FF33C4F8843001F0A9FBD4F8E8301BB11D
:103CC000D4F88C30AB4209D070BDD4F890300122CA
:103CD0008A4023EA0203C4F89030CCE7D4F8F030ED
:103CE000B3B14FF0A00383F31188BFF36F8FBFF31D
:103CF0004F8FFEE7D4F88C50B1E7FFF77BFEDAE791
:103D000031460948FEF71AFF236801332360D2E7E2
:103D1000064B4FF080521A60BFF34F8FBFF36F8F87
:103D200070BD00BFC0000020C400002004ED00E012
:103D300008B370B5194CD4F88C30834219D00546BD
:103D400001F042FB6E6901F061FBD4F88030B342B0
:103D50001AD0D4F8A830B34216D004F194039E428E
:103D600016D00434A64211D0002E0CBF042001202E
:103D700070BD002070BD4FF0A00383F31188BFF326
:103D80006F8FBFF34F8FFEE7022070BD042070BD20
:103D9000AB6A002B14BF0220032070BDC0000020BE
:103DA00010B5044601F010FB14B9044BD3F88C4055
:103DB000E46A01F02BFB204610BD00BFC0000020CC
:103DC00010B5044601F0ECFBEFF311834FF0A002B5
:103DD00082F31188BFF36F8FBFF34F8F14B9034A7B
:103DE000D2F88C40E06A83F3118810BDC000002037
:103DF00004292DE9F84308D94FF0A00383F3118873
:103E0000BFF36F8FBFF34F8FFEE704460E4601F0FE
:103E1000DBFA14B92C4BD3F88C40236C9E4228D08B
:103E2000294D4AD9D5F88C20A24244D0D5F88C200F
:103E3000D76AB7428CBF00270127D4F82C802664AC
:103E40004345A36908BFE662002BA4BFC6F105067F
:103E5000A6611E4E6269142303FB08639A420CD0CC
:103E60003FB11B4B4FF080521A60BFF34F8FBFF32F
:103E70006F8FBDE8F84301F0C9BA04F10409484660
:103E8000FEF786FE40B9D5F89030012202FA08F21A
:103E900023EA0203C5F89030E26AD5F89040012386
:103EA000934014202343494600FB0260C5F890303C
:103EB000FEF744FED4E70027BFE7D5F88C703A1B25
:103EC00057425741B9E700BFC0000020DC00002086
:103ED00004ED00E0F8B580B1224DD5F88C30834276
:103EE00014D0044601F070FA626905F194039A4215
:103EF0000DD0BDE8F84001F089BA4FF0A00383F37C
:103F00001188BFF36F8FBFF34F8FFEE7F8BDA36A31
:103F100005F1D4029342ECD0002BEAD1261D3046A5
:103F2000FEF736FEE26AD5F8907005F11C03142006
:103F300000FB0230012393403B433146C5F89030EB
:103F4000FEF7FCFDD5F88C30E26ADB6A9A42D0D3EA
:103F5000054B4FF080521A60BFF34F8FBFF36F8F46
:103F6000C7E700BFC000002004ED00E0D0B12DE99C
:103F7000F041054601F014FBEFF311874FF0A00369
:103F800083F31188BFF36F8FBFF34F8F204E6A69A1
:103F900006F194039A420ED0002487F3118820463C
:103FA000BDE8F0814FF0A00383F31188BFF36F8F5A
:103FB000BFF34F8FFEE7AC6A06F1D4008442EBD02A
:103FC000002CE9D1D6F8F030EBB9D6F88C30EC6A99
:103FD000DB6A05F104089C42404634BF00240124FA
:103FE000FEF7D6FDEA6AD6F8905006F11C031420BD
:103FF00000FB0230012393402B434146C6F890302A
:10400000FEF79CFDC9E705F11801FEF797FDC4E72F
:10401000C000002030B51A4C1A491B4883B004F187
:10402000F4030025CDE9005382222B46FFF732FD31
:10403000012803D001301AD003B030BD00F05AFF80
:104040000128F7D14FF0A00383F31188BFF36F8FDE
:10405000BFF34F8F4FF0FF33C4F88430C4F8E8004B
:10406000C4F8885003B0BDE8304001F03FBA4FF0CB
:10407000A00383F31188BFF36F8FBFF34F8FFEE769
:10408000C0000020346900089D3900084FF0A003EB
:1040900083F31188BFF36F8FBFF34F8F024B002262
:1040A000C3F8E82001F07EB9C0000020034AD2F82E
:1040B000F0300133C2F8F030704700BFC00000207C
:1040C000014BD3F888007047C000002008B501F00C
:1040D00067FA024BD3F8880008BD00BFC00000207B
:1040E000014B9869704700BFC000002008B1343010
:1040F0007047074BD3F88C000028F8D14FF0A0038D
:1041000083F31188BFF36F8FBFF34F8FFEE700BFBC
:10411000C00000202DE9F047454CD4F8F030B3B989
:10412000D4F888600136C4F88860F6B1D4F88430D9
:10413000B34228D90025D4F88C30DB6A03EB830323
:1041400004EB8303DB69022B28BF012505E0D4F8CB
:10415000FC300133C4F8FC300025D4F80031002BCA
:104160000CBF28460120BDE8F087D4F880301B68DA
:10417000002B43D04FF0A00383F31188BFF36F8F60
:10418000BFF34F8FFEE7DFF8ACA000254FF0010929
:1041900027E0D4F88030DB68DF687B6807F104082B
:1041A0009E42404627D3FEF7F3FCBB6A07F1180096
:1041B0000BB1FEF7EDFCF86AD4F8902009FA00F391
:1041C00000EB8000134341460AEB8000C4F89030B6
:1041D000FEF7B4FCD4F88C30FA6ADB6A9A4228BF46
:1041E0000125D4F880301B68002BD2D14FF0FF336B
:1041F000C4F884309FE7C4F884309CE7D4F880305A
:10420000D4F8A820C4F88020C4F8A830D4F8F83036
:104210000133C4F8F830D4F880301B6823B94FF06C
:10422000FF33C4F8843081E7FFF7E4FB7EE700BF8B
:10423000C0000020DC0000202DE9F041374CD4F80C
:10424000F03043B94FF0A00383F31188BFF36F8FB1
:10425000BFF34F8FFEE701F0B7F8D4F8F030013B21
:10426000C4F8F030D4F8F0505DBBA3694BB301261D
:1042700004F11C07D4F8D4304BB3D4F8E030DD6837
:1042800005F1040805F11800FEF782FC4046FEF730
:104290007FFCE86AD4F8902006FA00F300EB800077
:1042A0001343414607EB8000C4F89030FEF746FC0C
:1042B000D4F88C30EA6ADB6A9A42DBD3C4F8006136
:1042C000D8E7002401F0A2F82046BDE8F0813DB116
:1042D000D4F880301B68F3B94FF0FF33C4F8843052
:1042E000D4F8FC504DB10126FFF714FF08B1C4F813
:1042F0000061013DF8D1C4F8FC50D4F80031002B26
:10430000DFD0074B4FF080521A60BFF34F8FBFF3DF
:104310006F8F0124D6E7FFF76DFBE1E7C0000020B7
:1043200004ED00E0B8B141B94FF0A00383F3118868
:10433000BFF36F8FBFF34F8FFEE710B51E4CD4F85D
:10434000F0208AB14FF0A00383F31188BFF36F8F81
:10435000BFF34F8FFEE74FF0A00383F31188BFF345
:104360006F8FBFF34F8FFEE70246D4F8F0000130A5
:10437000C4F8F0000B461168D4F88800CB182CBFA5
:10438000012400248142136012D92CB1984203D237
:10439000181A0021FFF73AFBFFF74EFF38B9074B19
:1043A0004FF080521A60BFF34F8FBFF36F8F10BD75
:1043B000002CEDD1EAE700BFC000002004ED00E0D2
:1043C00008B5B0B10F4BD3F8F01041B14FF0A003D6
:1043D00083F31188BFF36F8FBFF34F8FFEE7D3F8DE
:1043E000F0200132C3F8F020FFF710FBFFF724FFA5
:1043F00038B9054B4FF080521A60BFF34F8FBFF3AF
:104400006F8F08BDC000002004ED00E0194AD2F80B
:10441000F030E3B910B4C2F80031D2F89030B3FAFA
:1044200083F3DBB2C3F11F0303EB8301890054184C
:10443000E06980B1206A11444068206224318842DA
:1044400012D0C368C2F88C305DF8044B704701236A
:10445000C2F8003170474FF0A00383F31188BFF317
:104460006F8FBFF34F8FFEE7142101FB03234068DA
:104470001862E6E7C000002070B50546354C00F034
:10448000A3FF002D4BD02E1D3046FEF781FB30B927
:10449000E96A01EB810304EB8303DB694BB3AB6A8D
:1044A0001BB105F11800FEF773FB31462A48FEF7F1
:1044B00045FB95F84C30012B04BF002385F84C30A8
:1044C00000F0A4FFD4F8E830E3B9D4F88C30AB4264
:1044D00000D070BDD4F8E83023B3D4F8F0306BB31B
:1044E0004FF0A00383F31188BFF36F8FBFF34F8F9B
:1044F000FEE7D4F8903001228A4023EA0203C4F890
:104500009030CCE700F060FFD4F880301B68F3B93E
:104510004FF0FF33C4F8843000F078FFD5E7D4F8CB
:104520008C50B0E7D4F89410A269914203D0BDE852
:104530007040FFF76BBFC4F88C3070BD074B4FF075
:1045400080521A60BFF34F8FBFF36F8F70BDFFF7BC
:1045500051FAE1E7C00000205401002004ED00E022
:1045600040B94FF0A00383F31188BFF36F8FBFF3FF
:104570004F8FFEE710B5064B0C46D3F88C10183160
:10458000FEF7ECFA20460121BDE81040FFF73EBAE5
:10459000C000002038B560B1134DD5F8F0308BB9AC
:1045A0004FF0A00383F31188BFF36F8FBFF34F8FDA
:1045B000FEE74FF0A00383F31188BFF36F8FBFF3C3
:1045C0004F8FFEE714460B46D5F88C20D5F88C109B
:1045D00043F0004393611831FEF7B0FA2046012101
:1045E000BDE83840FFF712BAC000002038B590B1DE
:1045F0000D4B0D46D3F88C1014461831FEF79EFA79
:10460000002C08BF2846214618BF4FF0FF30BDE8F8
:104610003840FFF7FBB94FF0A00383F31188BFF3D5
:104620006F8FBFF34F8FFEE7C0000020F8B5C3685F
:10463000DD6845B305F118061A4C3046FEF7A8FAB6
:10464000D4F8F03043BB2E1D3046FEF7A1FAE86ADD
:10465000D4F890700123834004F11C0200EB800029
:104660003B43314602EB8000C4F89030FEF766FA17
:10467000D4F88C30EA6ADB6A9A4286BF0120C4F81B
:1046800000010020F8BD4FF0A00383F31188BFF3B1
:104690006F8FBFF34F8FFEE7314604F1D400FEF772
:1046A0004DFAE5E7C0000020F8B51E4CD4F8F03014
:1046B00043B94FF0A00383F31188BFF36F8FBFF3AB
:1046C0004F8FFEE7C56841F0004101600DB32F1D1B
:1046D000FEF75EFA3846FEF75BFAE86AD4F890C057
:1046E000012604F11C0206FA00F300EB800043EA05
:1046F0000C0302EB80003946C4F89030FEF71EFA36
:10470000D4F88C30EA6ADB6A9A4288BFC4F8006148
:10471000F8BD4FF0A00383F31188BFF36F8FBFF391
:104720004F8FFEE7C000002040B94FF0A00383F395
:104730001188BFF36F8FBFF34F8FFEE710B50446AC
:1047400000F042FE054BD3F8F820D3F88830C4E9D6
:104750000023BDE8104000F059BE00BFC00000209B
:10476000034BD3F8F820D3F88830C0E90023704712
:10477000C0000020F8B530B3E1B10D46044600F0AA
:1047800023FE1C4A2B686668D2F888005F1CA0EBE9
:10479000060121D0D2F8F8C02768674501D08642CB
:1047A00026D98B421AD800232B60012500F02EFE5B
:1047B0002846F8BD4FF0A00383F31188BFF36F8F35
:1047C000BFF34F8FFEE74FF0A00383F31188BFF3D1
:1047D0006F8FBFF34F8FFEE70025E7E75B1AD2F834
:1047E000F810D2F888202B600025C4E90012DDE71C
:1047F0000125DBE7C0000020024B0122C3F80021A5
:10480000704700BFC0000020014BD3F88C007047F8
:10481000C0000020064BD3F8E82032B1D3F8F030C6
:10482000002B0CBF0220002070470120704700BF02
:10483000C000002038B3F8B5294DC36AD5F88C20E4
:10484000D26A934216D28269002A05DBD5F88C2001
:10485000D26AC2F105028261224E426903EB8303F0
:1048600006EB83039A420FD0D5F88C30DB6AC36223
:104870000120F8BDD5F88C30006CDB6A98422CBF63
:1048800000200120F8BD7047071D04463846FEF79A
:104890007FF978B9E26A02EB820305EB8303DB69F7
:1048A00043B9D5F89030012101FA02F223EA02025D
:1048B000C5F89020D5F88C30D5F89020D86AE06201
:1048C000012404FA00F300EB800006EB80001343A0
:1048D0003946C5F89030FEF731F92046F8BD00BFE3
:1048E000C0000020DC00002070B1F8B5274DD5F8DD
:1048F0008C3083420AD04FF0A00383F31188BFF3BA
:104900006F8FBFF34F8FFEE7002070475B6C43B99A
:104910004FF0A00383F31188BFF36F8FBFF34F8F66
:10492000FEE7C16A026C013B9142436400D00BB1C7
:104930000020F8BD071D04463846FEF729F968B97E
:10494000E16A142303FB0153DB693BB9D5F89030CE
:1049500001228A4023EA0203C5F89030236C0C4AF6
:10496000D5F890C0E3620126142000FB032006FA6C
:1049700003F2C3F1050342EA0C023946A361C5F80C
:104980009020FEF7DBF83046F8BD00BFC0000020E5
:10499000DC000020B8B12DE9F041446C44B94FF07F
:1049A000A00383F31188BFF36F8FBFF34F8FFEE730
:1049B000036CC26A8B4238BF0B469A4201D0012C6D
:1049C00002D0BDE8F0817047204DD5F88C108142AF
:1049D00032D08169C3620029A8BFC3F105031C4F0F
:1049E000A8BF83611426436906FB02729342E8D193
:1049F00000F1040804464046FEF7CAF8E26A60B9CE
:104A000006FB02560123F06903FA02F128B9D5F832
:104A1000903023EA0103C5F89030D5F89040012387
:104A2000934023431420414600FB0270C5F89030A8
:104A3000BDE8F041FEF782B84FF0A00383F3118880
:104A4000BFF36F8FBFF34F8FFEE700BFC0000020A2
:104A5000DC000020064AD2F88C10D2F88C30D2F854
:104A60008C20DB6A8869C3F105039361704700BF3E
:104A7000C0000020054BD3F88C2022B1D3F88C1055
:104A80004A6C01324A64D3F88C007047C0000020A1
:104A900070B51A4C06460D4600F096FCD4F88C30E2
:104AA0009B6C2BB9D4F88C30012183F84C10C5B91C
:104AB00000F0ACFC00F088FCD4F88C309D6C25B183
:104AC000D4F88C3056B96A1E9A64D4F88C3000221F
:104AD00083F84C2000F09AFC284670BD00229A64AE
:104AE000F3E72846FEF792FF054B4FF080521A601D
:104AF000BFF34F8FBFF36F8FDAE700BFC000002016
:104B000004ED00E02DE9F041234C154680460E46A9
:104B10001F4600F059FCD4F88C2092F84C20022A51
:104B20000BD0D4F88C108A6C22EA08028A64D4F87C
:104B30008C30012183F84C10CFB900F067FC00F0F5
:104B400043FC1DB1D4F88C309B6C2B60D4F88C30B6
:104B500093F84C30022B16D00025D4F88C3000226C
:104B600083F84C2000F052FC2846BDE8F08138461E
:104B7000FEF74CFF094B4FF080521A60BFF34F8F86
:104B8000BFF36F8FD9E7D4F88C20936C23EA060625
:104B900096640125E1E700BFC000002004ED00E0BD
:104BA000F8B5A8B11D46044616460F4600F00CFCA9
:104BB0000DB1A36C2B6094F84C500222731EEDB221
:104BC00084F84C20032B0FD8DFE803F04B470D0B84
:104BD0004FF0A00383F31188BFF36F8FBFF34F8FA4
:104BE000FEE7022D07D0A764012D06D0012500F0B5
:104BF0000DFC2846F8BD0025F9E7271D1B4E384659
:104C0000FDF7C6FFE26AD6F890C005FA02F339460E
:104C100006F11C00142743EA0C0307FB0200C6F848
:104C20009030FDF78BFFA36A43B14FF0A00383F3ED
:104C30001188BFF36F8FBFF34F8FFEE7D6F88C302C
:104C4000E26ADB6A9A42D1D9094B4FF080521A606E
:104C5000BFF34F8FBFF36F8FC9E7A36C0133A3641A
:104C6000C2E7A36C1F43A764BEE700BFC0000020DB
:104C700004ED00E02DE9F843DDF82080F8B10446AA
:104C80001D461646894600F08BFCEFF311874FF066
:104C9000A00383F31188BFF36F8FBFF34F8F0DB164
:104CA000A36C2B6094F84C500222731EEDB284F872
:104CB0004C20032B10D8DFE803F04E4A0D0B4FF0C9
:104CC000A00383F31188BFF36F8FBFF34F8FFEE70D
:104CD000022D08D0C4F84890012D06D0012087F39A
:104CE0001188BDE8F8830020F9E7A36A43B14FF0CB
:104CF000A00383F31188BFF36F8FBFF34F8FFEE7DD
:104D00001C4ED6F8F03073BB04F104094846FDF799
:104D10003FFFE26AD6F890C005FA02F306F11C00E4
:104D2000142543EA0C03494605FB0200C6F89030FF
:104D3000FDF704FFD6F88C30E26ADB6A9A42CDD9DF
:104D40000120B8F1000F0BD0C8F80000C7E7A36C32
:104D50000133A364C0E7A36C43EA0903A364BBE780
:104D6000C6F80001BBE704F1180106F1D400FDF715
:104D7000E5FEDFE7C00000202DE9F843E0B104467E
:104D80000F4600F00DFCEFF311884FF0A00383F302
:104D90001188BFF36F8FBFF34F8F022394F84C50ED
:104DA00084F84C30A36CEDB20133012DA3640CD018
:104DB00088F31188BDE8F8834FF0A00383F31188CE
:104DC000BFF36F8FBFF34F8FFEE7A36A43B14FF07E
:104DD000A00383F31188BFF36F8FBFF34F8FFEE7FC
:104DE000164ED6F8F030FBB904F104094846FDF739
:104DF000CFFEE26AD6F890C005FA02F306F11C0075
:104E0000142543EA0C03494605FB0200C6F890301E
:104E1000FDF794FED6F88C30E26ADB6A9A42C7D975
:104E2000012347B13B60C3E704F1180106F1D40048
:104E3000FDF784FEEEE7C6F80031B9E7C0000020B8
:104E400010B578B1044600F0BFFA94F84C30022B4C
:104E500005BF002384F84C300024012400F0D6FA6A
:104E6000204610BD014BD3F88C40ECE7C000002079
:104E7000F8B50F4C00F0A8FA25681DB1BDE8F84060
:104E800000F0C4BA271D384604F11806FDF746FEA7
:104E90003046FDF743FE2A460C210520C4E90B7677
:104EA000FDF7AAFF2060BDE8F84000F0AFBA00BFF0
:104EB000C4010020914208B50061416005D88169B4
:104EC000D21A8A420CD3012008BD9A4201D29942DB
:104ED000F9D2074B011DD86AFDF740FE002008BD3E
:104EE000034B011D186BFDF739FE002008BD00BF04
:104EF000C401002000B583B0FFF7BAFF0D4B1A685C
:104F00005AB134330222CDE900230B490B48002368
:104F10004FF48272FEF7BEFD40B94FF0A00383F359
:104F20001188BFF36F8FBFF34F8FFEE703B05DF8BB
:104F300004FB00BFC40100203C6900087150000858
:104F40002DE9F042814628200D4616461F4600F006
:104F500053FB0446A8B145B94FF0A00383F3118871
:104F6000BFF36F8FBFF34F8FFEE7FFF781FF069B05
:104F7000C4F80090C4E9065627626362201DFDF75D
:104F8000D9FD2046BDE8F082C0B170B5164D04468B
:104F9000286884B080B1164605291A46CDE9011665
:104FA000039414DCFFF736FC022816D0002328688F
:104FB0001A4601A9FDF76AFF04B070BD4FF0A003C7
:104FC00083F31188BFF36F8FBFF34F8FFEE700238A
:104FD00001A9FEF753F804B070BD2868089A0023B1
:104FE00001A9FDF753FFE7E7C40100202DE9F043D5
:104FF0001E4E83B04FF000080DE0DB68DC68D3F88C
:105000000090251D2846FDF7C3FD636A204698479A
:10501000E369012B09D0F36A1A68002AEDD1326BDB
:10502000C6E90B2303B0BDE8F083A76909EB070CC1
:105030000023E1454A461946204607D2C4F804C079
:105040002461F06A2946FDF789FDE4E7CDF8008088
:10505000FFF79AFF0028DED14FF0A00383F31188F9
:10506000BFF36F8FBFF34F8FFEE700BFC401002077
:105070002DE9F0436A4C6B4F87B00126E36A1D6847
:10508000002D47D0DB681D68FFF710F8FFF718F810
:10509000A36B834280464DD88542A06354D9002239
:1050A000A5EB08012068FEF70BFCFFF7C5F830B947
:1050B0004FF080533B60BFF34F8FBFF36F8F0022E1
:1050C00003A92068FEF7A8F80028D7D0039B002B7F
:1050D000F5DBDDF81480D8F814301BB108F10400BA
:1050E000FDF756FDFEF7ECFFA36B9842054628D36B
:1050F000039BA563092BE2D806FA03F313F40479A2
:105100005DD113F0C70F32D19B06D8D5404600F0D1
:10511000CFFAD4E7FEF7CAFFFEF7D2FFA36B8342B4
:10512000804607D8236BC4F838801A68B2FA82F236
:105130005209B5E7FFF75AFFC4F83880FFF77CF84B
:10514000BDE7FFF753FFD3E7FFF776F8E36ADB68C5
:10515000D3F80C9009F10400FDF71AFDD9F81C30C2
:10516000012B37D0D9F8243048469847A7E7049B4D
:10517000D8F818102A4619444046FFF79BFE00282D
:105180009DD0D8F8243040469847D8F81C30012BE1
:1051900095D1D8F81830049ACDF800901A444046BA
:1051A0004B464946FFF7F0FE002888D14FF0A00398
:1051B00083F31188BFF36F8FBFF34F8FFEE704991E
:1051C000C8F8181011B3294440462B462A46FFF769
:1051D00071FE74E7D9F81810424629442B46484618
:1051E000FFF768FE0028BDD000232A460093194629
:1051F0004846FFF7C9FE0028B4D14FF0A00383F35F
:105200001188BFF36F8FBFF34F8FFEE74FF0A003FE
:1052100083F31188BFF36F8FBFF34F8FFEE700BF9B
:10522000C401002004ED00E0064B586B00B170474C
:105230004FF0A00383F31188BFF36F8FBFF34F8F3D
:10524000FEE700BFC401002008B1806970474FF03D
:10525000A00383F31188BFF36F8FBFF34F8FFEE777
:1052600008B1406870474FF0A00383F31188BFF383
:105270006F8FBFF34F8FFEE708B1006870474FF0A4
:10528000A00383F31188BFF36F8FBFF34F8FFEE747
:1052900040B94FF0A00383F31188BFF36F8FBFF3C2
:1052A0004F8FFEE710B5044600F08EF864690034B5
:1052B00018BF012400F0AAF8204610BD40B94FF0F5
:1052C000A00383F31188BFF36F8FBFF34F8FFEE707
:1052D00010B5044600F078F8246A00F097F82046EC
:1052E00010BD00BF38B540B94FF0A00383F311885B
:1052F000BFF36F8FBFF34F8FFEE704460D4600F0FC
:1053000063F82562BDE8384000F080B80000000076
:105310000E4B1B6882B000220133019208D04FF07F
:10532000A00383F31188BFF36F8FBFF34F8FFEE7A6
:105330004FF0A00383F31188BFF36F8FBFF34F8F3C
:10534000019B002BFCD002B0704700BF3000002052
:1053500010B421F001014FF08074054B40F8202C6F
:1053600040E9021440F80C3C5DF8044B40387047AB
:10537000115300080A4B19680868B0E8F00F80F371
:105380000988BFF36F8F4FF0000080F311884EF053
:105390000D0E7047AFF30080AFF30080AFF30080D5
:1053A0004C010020074B1B68B3F57A7F08D04FF003
:1053B000A00383F31188BFF36F8FBFF34F8FFEE716
:1053C000704700BF300000204FF0A00383F3118826
:1053D000BFF36F8FBFF34F8F0A4A13680133012B5E
:1053E000136000D07047084B1B6813F0FF0FF9D013
:1053F0004FF0A00383F31188BFF36F8FBFF34F8F7C
:10540000FEE700BF3000002004ED00E0084A13680A
:1054100043B94FF0A00383F31188BFF36F8FBFF33D
:105420004F8FFEE7013B13600BB983F31188704780
:1054300030000020EFF30980BFF36F8F104B1A6824
:1054400020E9F00F10602DE908404FF0A00080F334
:105450001188FEF7DBFF4FF0000080F31188BDE8F4
:10546000084019680868B0E8F00F80F30988BFF3B6
:105470006F8F7047AFF30080AFF30080AFF3008011
:105480004C01002008B54FF0A00383F31188BFF34F
:105490006F8FBFF34F8FFEF73DFE18B1034B4FF0F8
:1054A00080521A60002383F3118808BD04ED00E0E8
:1054B00030B4094A094D0A4B0A4C0B4800211160CF
:1054C00029601B68A4FB03139B09013B07210360B0
:1054D00030BC1160704700BF10E000E018E000E051
:1054E00010000020D34D621014E000E010B5284BEE
:1054F00028491A7882B0FF20D2B2019218701B7826
:10550000DBB28DF803309DF803309DF803200720AF
:1055100003F0A003486010060B7011D5062300E0CD
:1055200003469DF803205200D2B28DF803209DF867
:105530000320120603F1FF30F2D4032B4B6008D096
:105540004FF0A00383F31188BFF36F8FBFF34F8F2A
:10555000FEE701980E4C104AC0B22070106840F06F
:105560007F60106010681B0240F07040106003F410
:10557000E0634B60FFF79CFF084B00241C6000F0C9
:1055800073FDFEF743FFFFF7C3FE204602B010BDD8
:1055900000E400E00002002020ED00E030000020E8
:1055A000EFF305820F2A11D8104B11495A680B6886
:1055B00003F4E063934208D94FF0A00383F311880A
:1055C000BFF36F8FBFF34F8FFEE770470949074B5B
:1055D000525C19789142E8D94FF0A00383F3118807
:1055E000BFF36F8FBFF34F8FFEE700BF00020020B5
:1055F0000CED00E0F0E300E0F8B50446FEF756FDE0
:10560000274B996871B91846264A40F80C1F22F0BA
:1056100007025960012540F6F8711A60516019615E
:1056200010609D60002C35D0083462071CBF24F048
:1056300007040834611E40F6F67291422AD81B68AE
:10564000174D03E01A6822B11D4613465968A1425E
:10565000F8D3154A93421DD028681E682E600F1B90
:10566000102F00F108050DD91E190C3A77605C6007
:10567000706800E01A46136859688142FAD33360B3
:1056800021461660094A1368591A1160FEF7D4FDC5
:105690002846F8BD0025FEF7CFFD2846F8BD00BF1F
:1056A0000802002024020020140200203400002000
:1056B000C8B138B50546FEF7F9FCA5F1080055F864
:1056C000044C094A00E01A4613685968A142FAD30B
:1056D000064945F8083C0B6810601C440C60BDE8A6
:1056E0003840FEF7A9BD70470802002034000020B2
:1056F000014B1868704700BF34000020704700BF9E
:1057000081F0004102E000BF83F0004330B54FEA72
:1057100041044FEA430594EA050F08BF90EA020FDF
:105720001FBF54EA000C55EA020C7FEA645C7FEA72
:10573000655C00F0E2804FEA5454D4EB5555B8BF95
:105740006D420CDD2C4480EA020281EA030382EA06
:10575000000083EA010180EA020281EA0303362D98
:1057600088BF30BD11F0004F4FEA01314FF4801C6B
:105770004CEA113102D0404261EB410113F0004F7D
:105780004FEA03334CEA133302D0524263EB430334
:1057900094EA050F00F0A780A4F10104D5F1200ED2
:1057A0000DDB02FA0EFC22FA05F2801841F100012D
:1057B00003FA0EF2801843FA05F359410EE0A5F101
:1057C00020050EF1200E012A03FA0EFC28BF4CF032
:1057D000020C43FA05F3C01851EBE37101F00045E8
:1057E00007D54FF0000EDCF1000C7EEB00006EEBF5
:1057F0000101B1F5801F1BD3B1F5001F0CD349087F
:105800005FEA30004FEA3C0C04F101044FEA4452D5
:1058100012F5800F80F09A80BCF1004F08BF5FEA5C
:10582000500C50F1000041EB045141EA050130BD3C
:105830005FEA4C0C404141EB010111F4801FA4F1DF
:105840000104E9D191F0000F04BF01460020B1FA34
:1058500081F308BF2033A3F10B03B3F120020CDA6C
:105860000C3208DD02F1140CC2F10C0201FA0CF04A
:1058700021FA02F10CE002F11402D8BFC2F1200CAF
:1058800001FA02F120FA0CFCDCBF41EA0C01904065
:10589000E41AA2BF01EB0451294330BD6FEA0404AE
:1058A0001F3C1CDA0C340EDC04F11404C4F1200299
:1058B00020FA04F001FA02F340EA030021FA04F3AB
:1058C00045EA030130BDC4F10C04C4F1200220FA02
:1058D00002F001FA04F340EA0300294630BD21FA40
:1058E00004F0294630BD94F0000F83F4801306BF06
:1058F00081F480110134013D4EE77FEA645C18BFFA
:105900007FEA655C29D094EA050F08BF90EA020F90
:1059100005D054EA000C04BF1946104630BD91EA88
:10592000030F1EBF0021002030BD5FEA545C05D18B
:105930004000494128BF41F0004130BD14F58004CA
:105940003CBF01F5801130BD01F0004545F0FE413E
:1059500041F470014FF0000030BD7FEA645C1ABF73
:10596000194610467FEA655C1CBF0B46024650EAAA
:10597000013406BF52EA033591EA030F41F40021D6
:1059800030BD00BF90F0000F04BF0021704730B55C
:105990004FF4806404F132044FF000054FF0000131
:1059A00050E700BF90F0000F04BF0021704730B5F2
:1059B0004FF4806404F1320410F0004548BF4042C7
:1059C0004FF000013EE700BF42004FEAE2014FEA1C
:1059D00031014FEA02701FBF12F07F4393F07F4FF7
:1059E00081F06051704732F07F4208BF704793F0FA
:1059F0007F4F04BF41F40021704730B54FF460740D
:105A000001F0004521F000411CE700BF50EA01020F
:105A100008BF704730B54FF000050AE050EA0102B8
:105A200008BF704730B511F0004502D5404261EB28
:105A300041014FF4806404F132045FEA915C3FF469
:105A4000D8AE4FF003025FEADC0C18BF03325FEA06
:105A5000DC0C18BF033202EBDC02C2F1200300FAB7
:105A600003FC20FA02F001FA03FE40EA0E0021FADC
:105A700002F11444BDE600BF70B54FF0FF0C4CF4CA
:105A8000E06C1CEA11541DBF1CEA135594EA0C0F7C
:105A900095EA0C0F00F0DEF82C4481EA030621EAB7
:105AA0004C5123EA4C5350EA013518BF52EA0335F2
:105AB00041F4801143F4801338D0A0FB02CE4FF0A4
:105AC0000005E1FB02E506F00042E0FB03E54FF0D4
:105AD0000006E1FB03569CF0000F18BF4EF0010ECC
