:020000040800F2
:10000000005000209D600008E5600008E5600008E1
:10001000E5600008E5600008E560000800000000F9
:100020000000000000000000000000000154000873
:10003000E560000800000000B55400080555000800
:10004000E5600008E5600008E5600008E56000087C
:10005000E5600008E5600008E5600008E56000086C
:10006000E5600008E5600008E5600008E56000085C
:10007000E5600008E5600008E5600008E56000084C
:10008000E5600008E5600008E5600008E56000083C
:10009000E5600008E5600008E5600008E56000082C
:1000A000E5600008E5600008E5600008E56000081C
:1000B000E5600008E5600008E5600008E56000080C
:1000C000E5600008E5600008E5600008E5600008FC
:1000D000E560000849280008E5600008E5600008C0
:1000E000E5600008E5600008E56000080000000029
:1000F0000000000000000000000000000000000000
:0C01000000000000000000005FF808F1A3
:1001100010B5054C237833B9044B13B10448AFF341
:1001200000800123237010BD9C000020000000000F
:100130000C01000808B5034B1BB103490348AFF39A
:10014000008008BD00000000A00000200C01000895
:10015000F0B50C4B0C4E93E8070085B001AF87E873
:10016000070004AD3C4640F2EE2004F061F9214660
:1001700000234FF47A723068043402F08FFEAC42F0
:10018000F1D1EFE780690008B80000202DE9F041C7
:10019000DFF85480124F134E86B002F011FC044673
:1001A00002F04EFC054602F083FC2B4622460090EE
:1001B000314602A805F0CAFF0021084602F0BEF948
:1001C00002A802F02FFA0A2004F032F9FA88C8F8DF
:1001D00000204FF0804340F69802A3F84020DCE76F
:1001E000381200208C6900083412002000B583B05A
:1001F00003F09CFF01900A2101A804F0CDF8FAE772
:1002000070B50121042000F047FF1D4E1D4D1E4C0E
:100210000121084600F04CFF304600F097FB41F604
:1002200003030822314673801848328000F032FB05
:10023000284601F0B3FB0026472244F61F632946F7
:100240004FF080402A80AB80EE806E8001F030F964
:10025000204601F0ADFB012521464FF47A72602360
:100260004FF080402681E2802380658001F048FACB
:1002700029464FF08040BDE8704001F0B5BB00BF9B
:1002800048120020281200203812002000080140E7
:1002900008B505F0C9FB07A3D3E9002305F02EFC40
:1002A0000022034B05F074FA05F03AFE08BD00BFCA
:1002B00000407F4032582F8EE33826403A4B3B4A6D
:1002C000196841F00101196059680A405A601A68BA
:1002D00022F0847222F480321A601A6822F480229A
:1002E0001A605A6882B022F4FE0200214FF41F0007
:1002F0005A609860009101911A6842F480321A6045
:1003000003E0009AB2F5A06F09D01A6802F4003237
:100310000192009A01320092019A002AF1D0224BF8
:100320001B6813F4003318BF01230193019B012BB9
:1003300005D01F4B4FF000629A6002B070471D4A13
:10034000194B116841F010011160116821F003018F
:100350001160116841F0020111605A685A605A68D0
:100360005A605A6842F480625A605A6822F47C12D9
:100370005A605A6842F4E8125A601A6842F0807271
:100380001A601A689201FCD55A68074922F00302E4
:100390005A605A6842F002025A604B6803F00C033C
:1003A000082BFAD1C5E700BF001002400000FFF89B
:1003B00000ED00E000200240114A536803F00C03F6
:1003C000082B09D00F4B0E4A0F495268C2F3031293
:1003D0008A5CD3400B61704753685168C3F3834311
:1003E000C90303F1020306D55268920303D4054AF8
:1003F00002FB03F3E7E7054A02FB03F3E3E700BF71
:100400000010024000127A000000002000093D00A8
:1004100008B5174B984206D0164B98420FD0164B92
:10042000984218D008BD01214FF4007000F04CFE36
:1004300000214FF40070BDE8084000F045BE0121E6
:100440004FF4806000F040FE00214FF48060BDE872
:10045000084000F039BE01214FF4004000F034FEA6
:1004600000214FF40040BDE8084000F02DBE00BF61
:100470000024014000280140003C0140436870B462
:1004800023F470230E790D680D4C23F4807343EA36
:1004900006232B434360D1E90223856813432C4094
:1004A0004A79234343EA420383600A7CC36A013AE0
:1004B000D2B223F4700343EA0253C36270BC7047A4
:1004C000FDF7F1FF00230122027403608380C0E97D
:1004D00002337047836819B143F0010383607047AA
:1004E00023F0010383607047836819B143F480737C
:1004F0008360704723F4807383607047C9B2436898
:1005000012B10B434360704723EA01034360704715
:10051000836843F008038360704700BF8068C0F3BE
:10052000C0007047836843F004038360704700BFD6
:100530008068C0F380007047836819B143F4A0035A
:100540008360704723F4A003836070478068C0F322
:10055000805070474368013923F4604343EA4133D4
:1005600043607047436819B143F4006343607047C8
:1005700023F4006343607047092970B429D9A1F1BD
:100580000A0404EB4404C5680726A640A34025EAF4
:1005900006052B43C360062A0CD8013A02EB8202FF
:1005A000436B1F24944023EA0403914019434163A1
:1005B00070BC70470C2A17D8073A02EB8202036B13
:1005C0001F24944023EA040391401943016370BC43
:1005D000704701EB410604690725B540B34024EAA2
:1005E000050423430361D6E70D3A02EB8202C36A96
:1005F0001F24944023EA040391401943C16270BC54
:10060000704700BF836819B143F48013836070475B
:1006100023F4801383607047C06C80B2704700BFC2
:10062000014B1868704700BF4C240140436819B162
:1006300043F480634360704723F4806343607047F2
:10064000436819B143F480534360704723F48053E7
:1006500043607047836823F4E04319438160704727
:10066000836819B143F400438360704723F4004367
:1006700083607047836819B143F402138360704745
:1006800023F40213836070478068C0F340507047C2
:10069000092970B41CD9A1F10A0404EB4404C5680B
:1006A0000726A640A34025EA06052B43C360836BBB
:1006B0000232C3F30154121BD2B202EB82021F2496
:1006C000944023EA040391401943816370BC70474E
:1006D00001EB410604690725B540B34024EA05044F
:1006E00023430361E3E700BF836B013923F4401325
:1006F00043EA01538363704782B000230193019062
:10070000019B19440191019B1A6002B0704700BF20
:1007100082B0002301930190019B28331944019179
:10072000019B186880B202B0704700BF436823F491
:10073000400323F4007319434160704741628262B1
:10074000704700BF436823F01F031943416070479F
:10075000054A936818B143F400039360704723F48B
:1007600000039360704700BF0024014003681942F2
:1007700014BF012000207047C9430160704700BFCB
:100780004368006810EA112004D0C9B2194214BFAE
:1007900001200020704700BF6FEA112101607047FF
:1007A00008B52F4B98421CD02E4B984223D02E4B8D
:1007B00098422AD02D4B984209D02D4B98422ED0EA
:1007C0002C4B984235D02C4B98423CD008BD01218F
:1007D000202000F079FC00212020BDE8084000F036
:1007E00073BC0121042000F06FFC00210420BDE84F
:1007F000084000F069BC0121082000F065FC0021E0
:100800000820BDE8084000F05FBC0121102000F086
:100810005BFC00211020BDE8084000F055BC012120
:10082000402000F051FC00214020BDE8084000F0CD
:100830004BBC0121802000F047FC00218020BDE856
:10084000084000F041BC01214FF4807000F03CFCF6
:1008500000214FF48070BDE8084000F035BC00BFB7
:1008600000080140000C014000100140001401404C
:1008700000180140001C01400020014008B5012182
:10088000084600F021FC00210120BDE8084000F0EE
:100890001BBC00BF2DE9F041CD780A88EB0648BFAC
:1008A0008B7805F00F0748BF1F4312F0FF0F21D0D0
:1008B000066800234FF0010C4FF00F0802E00133EF
:1008C000082B16D00CFA03F131EA0204F7D19C0090
:1008D00008FA04FE26EA0E0607FA04F4282D46EA72
:1008E00004062ED0482D03F1010308BF0161082B37
:1008F000E8D10660FF2A22D9466808234FF0010C90
:100900004FF00F0802E00133102B17D00CFA03F45C
:1009100034EA0201F7D19900203908FA01FE26EAEB
:100920000E0607FA01F1282D46EA01060BD0482DE4
:1009300003F1010308BF0461102BE7D14660BDE855
:10094000F0814161BBE74461DDE700BF4FF6FF7214
:1009500040F2024302804380704700BF836819421F
:1009600014BF012000207047806880B2704700BF2C
:10097000C368194214BF012000207047C06880B2CC
:10098000704700BF01617047416170470AB1016162
:1009900070474161704700BFC160704741F48033C8
:1009A000836181618361836983697047064A136843
:1009B00010B44FF680742340194341EA00111160CE
:1009C0005DF8044B704700BF00000140014B186008
:1009D000704700BF1C0020420028194B00F4401251
:1009E000B4BFDB695B68B2F5401F30B484B21ED07F
:1009F000C20213D5C0F303450322AA4023EA02032F
:100A000043F0706319B1420D1201944023430C4A24
:100A10000028B4BFD361536030BC7047420D12014F
:100A200004FA02F223EA020343F07063EAE7044D9A
:100A30006A6822F0706223F070636A60E2E700BFC8
:100A40000000014001F0FC0303F1804303F5803313
:100A500001F0030110B49A6889000F248C4022EA47
:100A600004029A609A685DF8044B00FA01F11143A0
:100A700099607047014B1860704700BFDC0020424E
:100A800008B50D4B98424FF001010AD04FF4800099
:100A900000F026FB00214FF48000BDE8084000F084
:100AA0001FBB4FF4001000F01BFB00214FF400109F
:100AB000BDE8084000F014BB00540040F0B5054606
:100AC00087B001A80E46AC8800F092FA03982C4932
:100AD0003368DFF8B8C0A1FB002124F03F042404F0
:100AE000890C240C8FB23C43AC802A8822F001028E
:100AF0001204120C63452A801BD85B00B0FBF3F391
:100B00009BB20137042B38BF04232F84AB832A8880
:100B1000B18874891B4B308942F001022A802F88EA
:100B2000B2893B4021430B4302432B802A8107B00B
:100B3000F0BDF4884BF6FF7294421AD003EB8303A6
:100B400003EB8303B0FBF3F39BB243F48043C3F3A3
:100B50000B020AB943F001034FF496720A4802FBF4
:100B600001F1A0FB01218909013143F400432984EB
:100B7000CCE703EB4303B0FBF3F39BB2E7E700BF23
:100B800083DE1B43F5FBFFFFD34D6210A0860100FF
:100B900041F288330449036000224FF48043C0E9E6
:100BA00001128381704700BF0000FFBF038819B1A5
:100BB00043F001030380704723F001031B041B0C67
:100BC00003807047838819B143F4006383807047C2
:100BD00023F400631B041B0C83807047838819B1C6
:100BE00043F480538380704723F480531B041B0C11
:100BF00083807047038819B143F480730380704782
:100C000023F480731B041B0C03807047038819B105
:100C100043F400730380704723F400731B041B0C20
:100C200003807047038819B143F4806303807047E1
:100C300023F480631B041B0C0380704783899BB2E1
:100C400001F0FE0123F0FE030B438381704700BFD8
:100C5000838919B143F001038381704723F00103B5
:100C60001B041B0C83817047038819B143F04003B8
:100C70000380704723F040031B041B0C0380704764
:100C8000838812B119438180704723EA0101818072
:100C9000704700BF01827047008AC0B2704700BF32
:100CA00022B141F0010189B20182704701F0FE01D9
:100CB00089B20182704700BF82B000230193019086
:100CC000019B19440191019B188802B0704700BF35
:100CD000038819B143F4004303807047C3F30E0344
:100CE000038070470388B1F5006F1BBF23F40063D6
:100CF0001B0443F400631B0C038070470388B1F5A9
:100D0000005F1BBF23F400531B0443F400531B0C70
:100D100003807047038819B143F480530380704700
:100D200023F480531B041B0C03807047FFF7DABFCA
:100D3000038819B143F020030380704723F0200398
:100D40001B041B0C03807047008B000A704700BF18
:100D5000038819B143F010030380704723F0100398
:100D60001B041B0C03807047038819B943F08003F0
:100D70000380704723F080031B041B0C0380704723
:100D8000838BB1F5804F1DBF23F480431B041B0CE4
:100D900043F4804383837047838A008B43EA004394
:100DA0000B4023F07F43581AB0FA80F04009704797
:100DB000838A008B43EA004020F07F40704700BFE9
:100DC00082B000230A0F0093019301900092009BD0
:100DD00021F07F4153B1019B14330193019B1B68A8
:100DE0000B4214BF0120002002B07047019B183352
:100DF000090C0193F2E700BFC94389B281827047B1
:100E00008388808A08409BB206D003EA114313F41A
:100E1000E06F14BF01200020704700BFC94389B2B2
:100E2000818270470D4B0E4A196841F0010119602B
:100E300059680A405A601A6822F0847222F480329B
:100E40001A601A6822F480221A605A684FF41F014F
:100E500022F4FE025A609960704700BF0010024001
:100E60000000FFF80C4B1A6822F480321A601A68EE
:100E7000B0F5803F22F480221A6008D0B0F5802FB0
:100E800004D11A6842F4A0221A60704770471A68A9
:100E900042F480321A6070470010024082B0002392
:100EA0000A4A0193136813F4003F019B03F1010305
:100EB0000193019B05D0054B1868C0F3404002B078
:100EC0007047B3F5A06FEDD1F5E700BF0010024009
:100ED000034A136823F0F80343EAC0001060704728
:100EE00000100240014B1860704700BF00004242F2
:100EF000034A536823F47C1319430143516070473C
:100F000000100240014B1860704700BF6000424271
:100F1000034A536823F0030318435060704700BF2F
:100F200000100240024B586800F00C00704700BFF0
:100F300000100240034A536823F0F0031843506046
:100F4000704700BF00100240034A536823F4E06377
:100F500018435060704700BF00100240034A5368B6
:100F600023F4605343EAC000506070470010024011
:100F7000044A137811B103431370704723EA000346
:100F80001370704709100240014B1860704700BF92
:100F9000D8004242034A536823F440431843506048
:100FA000704700BF00100240064B002201281A7053
:100FB0001A7005D0042802D105221A7070477047B4
:100FC0001870704720100240014B1860704700BF36
:100FD00080044242024A136A18431062704700BFFD
:100FE00000100240014B1860704700BF3C044242B1
:100FF0001F4A536803F00C03042B10B401D0082BD4
:1010000021D01C4B03601A491B4A4C68C4F30314DB
:10101000145DE34043604C68C4F30224145D23FA7A
:1010200004F484604C68C4F3C224145DE340C360DC
:1010300049685DF8044BC1F381310A44127CB3FB6B
:10104000F2F30361704753685168C3F38343C903E4
:1010500003F1020307D55268920304D4054A02FB48
:1010600003F30360CFE7054A02FB03F30360CAE71B
:101070000010024000127A001400002000093D0018
:10108000044A536911B103435361704723EA0003D3
:101090005361704700100240044A936911B1034341
:1010A0009361704723EA0003936170470010024088
:1010B000044AD36911B10343D361704723EA0003A3
:1010C000D361704700100240044AD36811B1034352
:1010D000D360704723EA0003D360704700100240DA
:1010E000044A136911B103431361704723EA0003F3
:1010F0001361704700100240014B1860704700BF39
:1011000040044242014B1860704700BF4C0042420D
:10111000014B1870704700BF071002404309012BB4
:101120000BD0022B094B0CBF1B6A5B6A00F01F003F
:1011300023FA00F000F001007047044B1B6800F038
:101140001F0023FA00F000F0010070470010024079
:10115000024A536A43F080735362704700100240A2
:10116000034B9B68184214BF01200020704700BF4A
:1011700000100240014B1870704700BF0A10024077
:1011800070B4058C1B4E25F001052D042D0C058433
:10119000048B058C24F0F304240442EA0313240C8A
:1011A0001C43B042A4B2ADB21BD0134B984218D02E
:1011B000B0F1804F15D0A3F59833984211D003F5C4
:1011C000806398420DD003F58063984209D025F0E2
:1011D0000A0341EA030545F001050483058470BC58
:1011E000704725F002050D4345F001050483058491
:1011F00070BC7047002C014000340140F0B4048CF6
:101200001C4F24F010042404240C0484048B068C4A
:10121000120240F6FF45254042EA03331D430C010C
:10122000B842ADB2B6B2A4B21AD0134B984217D09E
:10123000B0F1804F14D0A3F59833984210D003F545
:10124000806398420CD003F58063984208D026F062
:10125000A0060E4346F0100405830484F0BC7047DA
:1012600026F02006344344F0100405830484F0BCC7
:10127000704700BF002C01400034014008B57C4B92
:10128000984242D0B0F1804F4BD07A4B984252D026
:10129000794B98422FD0794B984256D0784B984250
:1012A0005DD0784B984264D0774B984200F08380B1
:1012B000764B984267D0764B984200F08880754B09
:1012C000984200F09080744B984200F09880734BE5
:1012D000984200F09E80724B984200F0A480714BBF
:1012E000984200F0AC80704B984258D06F4B9842B7
:1012F00000F0B18008BD01210420FFF7F1FE0021BC
:101300000420BDE80840FFF7EBBE01214FF4006068
:10131000FFF7DAFE00214FF40060BDE80840FFF758
:10132000D3BE01210846FFF7DBFE00210120BDE806
:101330000840FFF7D5BE01210220FFF7D1FE0021B2
:101340000220BDE80840FFF7CBBE01210820FFF7CF
:10135000C7FE00210820BDE80840FFF7C1BE0121FB
:101360001020FFF7BDFE00211020BDE80840FFF768
:10137000B7BE01212020FFF7B3FE00212020BDE8E9
:101380000840FFF7ADBE01214FF40020FFF79CFE9F
:1013900000214FF40020BDE80840FFF795BE012171
:1013A0004FF40030FFF790FE00214FF40030BDE80D
:1013B0000840FFF789BE01214FF40050FFF784FE7B
:1013C00000214FF40050BDE80840FFF77DBE012129
:1013D0004FF48010FFF778FE00214FF48010BDE835
:1013E0000840FFF771BE01214FF40010FFF76CFEBB
:1013F00000214FF40010BDE80840FFF765BE012151
:101400004020FFF76DFE00214020BDE80840FFF7B7
:1014100067BE01218020FFF763FE00218020BDE828
:101420000840FFF75DBE01214FF48070FFF758FEC2
:1014300000214FF48070BDE80840FFF751BE012144
:101440004FF48030FFF740FE00214FF48030BDE8BC
:101450000840FFF739BE01214FF48020FFF734FE2A
:1014600000214FF48020BDE80840FFF72DBE00BFEB
:10147000002C01400004004000080040000C004027
:10148000001000400014004000340140004C0140B6
:10149000005001400054014000180040001C004072
:1014A000002000400040014000440140004801404D
:1014B000274A0388904270B49BB212D002F50062B2
:1014C00090420ED0B0F1804F0BD0A2F598329042EE
:1014D00007D002F58062904203D002F5806290420C
:1014E00003D14A8823F0700313431A4D8C880A886D
:1014F000A84215D005F58065A84211D0CE8823F406
:10150000407305F58C359BB23343A8420380848534
:1015100002850CD10B7A03860123838270BC70474D
:101520000380848502850123838270BC70470A4B47
:101530009842EFD003F540639842EBD003F5806307
:101540009842E7D003F580639842E3D0EBE700BF11
:10155000002C01400010004000340140F0B4048C25
:101560000D89B1F802C00F881E4E24F00104240436
:10157000240C0484028C8488038B22F0020223F062
:10158000730312041B04120C45EA0C051B0CB04239
:1015900042EA0502A4B243EA07030ED0124DA84264
:1015A0000BD005F54065A84207D005F58065A84237
:1015B00003D005F58065A8420DD14E898D89CF896C
:1015C00022F0080232438E8824F4407422F0040290
:1015D0003D4332432C43C98884800383F0BC818619
:1015E00002847047002C014000340140F0B4048CA8
:1015F0000E89B1F802C00F881D4D24F01004240498
:10160000240C0484038C8488028B23F0200322F4AE
:10161000E6421B0412041B0C46EA0C06120C43EAB9
:10162000061342EA0722A8429BB2A4B292B20AD0A1
:1016300005F50065A84206D0C98884800283F0BC05
:101640000187038470474D898E89CF8923F08003F9
:1016500043EA05134FF6BF751D408B8824F44064A0
:101660003E4345EA031344EA86049BB2A4B2E3E78F
:10167000002C0140F0B5048C0D89B1F802E00F8810
:101680001D4E24F480742404240C0484038CB0F8CC
:1016900004C0828B23F400731B0422F0730245EA1A
:1016A0000E041B0C120443EA0423120CB0429BB23A
:1016B0001FFA8CF542EA070208D0104CA04205D070
:1016C000C9888580828381870384F0BD4C898E8997
:1016D000CF8923F4006343EA04234FF6FF341C4010
:1016E0008B8825F440553E4344EA032345EA06141B
:1016F0009BB2A5B2E4E700BF002C014000340140DA
:10170000F0B4048C0E89B1F802C00F88174D24F490
:1017100080542404240C0484038C8488828B23F456
:10172000005322F4E6421B0412041B0C46EA0C068A
:10173000120C43EA063342EA0722A8429BB2A4B243
:1017400092B20BD005F50065A84207D0C988848005
:101750008283F0BCA0F84010038470478D8924F484
:10176000804444EA8514A4B2F0E700BF002C014095
:10177000F8B50D460E88AA8849882B890446002EA4
:1017800049D0042E00F09280082E008C4F4E4FD08E
:1017900020F480500004000C2084A78B208C1B03B5
:1017A00043EA022340F6FF423A401343B4424FEA71
:1017B00001329BB280B292B219D006F50066B442F3
:1017C00015D0B4F1804F12D0A6F59836B4420ED0A1
:1017D00006F58066B4420AD006F58066B44206D0AB
:1017E00047F6FF5202400A4342F4805204E020F4DC
:1017F0000050024342F48052A3832284A38BEA88E0
:1018000023F440631B041B0CA383A38B43EA022332
:101810009BB2A383F8BDFFF7B3FC038BEA8823F0E8
:101820000C031B041B0C0383038B13430383F8BDBE
:1018300020F480700004000C2084A08B278C80B2E0
:1018400020F0F300024342EA0312B4424FEA0123BC
:1018500092B2BFB29BB217D01D48844214D0B4F1EB
:10186000804F11D0A0F5983084420DD000F58060F3
:10187000844209D000F58060844205D027F42067B7
:101880000F4347F4807304E027F400773B4343F4AD
:101890008073A2832384A38BEA8823F00C031B04A8
:1018A0001B0CA383A38B1343A383F8BDFFF7A6FCF4
:1018B000038BEA8823F440631B041B0C0383038B14
:1018C00043EA02239BB20383F8BD00BF002C014012
:1018D00000340140F8B50D464988AA88B5F800C023
:1018E0002B8900290CBF02260026012A04460CBFC2
:1018F00002270127BCF1000F1ED1FFF741FC028B2C
:101900002B89E88822F00C021204120C2283228B0D
:10191000104320833A4631462046FFF76FFC238B65
:10192000EA8823F440631B041B0C2383238B43EAC4
:1019300002239BB22383F8BDFFF760FC028BE9888A
:101940002B8922F440621204120C0283008B40EABD
:10195000012080B23A46208331462046FFF710FC32
:10196000238BEA8823F00C031B041B0C2383238B9B
:1019700013432383F8BD00BF70B40B884C888A885A
:10198000CE880D89234313434C898A8933432B43E3
:1019900023431343A0F8443070BC704700234FF634
:1019A000FF7282800380C38043800372704700BF50
:1019B0000023038043808380C3800381438183812C
:1019C000C381704700230122828003804380C3804B
:1019D000038170470023038043808380C380038199
:1019E00043818381704700BF038819B143F001032D
:1019F0000380704723F001031B041B0C0380704716
:101A0000B0F8443021B143F40043A0F844307047AB
:101A1000C3F30E03A0F84430704700BF838912B1AE
:101A200019438181704723EA01018181704700BF1A
:101A3000818270470A43A0F848207047FFF7EEBF45
:101A4000038923F007031B041B0C0381704700BFAD
:101A5000038923F070031B041B0C194301810389C4
:101A600043F0070303817047602938B50D460446EB
:101A700011464FF001020DD0FFF782FB218921F0C2
:101A800070010904090C29432181238943F00703CC
:101A9000238138BDFFF7B2FBF0E700BF10B4048923
:101AA00042EA03231943E4B20C43A4B2048103893C
:101AB0005DF8044B23F077031B041B0C43F0770302
:101AC0000381704710B4048942EA03231943E4B246
:101AD0000C43A4B2048103895DF8044B43F48043B2
:101AE0000381704710B404890A4342EA0323E4B235
:101AF0001C43A4B204815DF8044B704701858282C7
:101B0000704700BF038823F070031B041B0C1943AC
:101B100001807047038923F070031B041B0C1943D9
:101B20000181704770B442EA03120589038B048C6B
:101B30000A4E24F0220425F0070524041E402D043B
:101B4000240C2D0C46F4807314432943A4B243F0B3
:101B5000010301810383048470BC7047FCFCFFFF18
:101B6000038B23F070031B041B0C19430183704784
:101B7000038B23F4E0431B041B0C43EA012189B2CD
:101B800001837047838B23F070031B041B0C1943E4
:101B900081837047838B23F4E0431B041B0C43EACF
:101BA000012189B281837047038819B143F0800312
:101BB0000380704723F080031B041B0C03807047D5
:101BC000838819B143F004038380704723F0040332
:101BD0001B041B0C83807047838819B143F00803F2
:101BE0008380704723F008031B041B0C838070471D
:101BF000838819B143F001038380704723F0010308
:101C00001B041B0C83807047038B23F008031B0409
:101C10001B0C194301837047038B23F400631B04DF
:101C20001B0C43EA012189B201837047838B23F0A7
:101C300008031B041B0C194381837047838B23F417
:101C400000631B041B0C43EA012189B281837047A6
:101C5000038B23F004031B041B0C194301837047FF
:101C6000038B23F480631B041B0C43EA012189B21C
:101C700001837047838B23F004031B041B0C19435F
:101C800081837047838B23F480631B041B0C43EA1E
:101C9000012189B281837047038B23F080031B04E9
:101CA0001B0C194301837047038BC3F30E0343EAF4
:101CB000012189B201837047838B23F080031B04C9
:101CC0001B0C194381837047838BC3F30E0343EAD4
:101CD000012189B281837047038C23F002031B0426
:101CE0001B0C194301847047038C23F008031B0469
:101CF0001B0C194301847047038C23F020031B0441
:101D00001B0C43EA011189B201847047038C23F054
:101D100080031B041B0C43EA011189B20184704744
:101D2000038C23F400731B041B0C43EA012189B2CA
:101D300001847047038C23F400631B041B0C43EAEB
:101D4000012189B201847047038C23F400531B04E2
:101D50001B0C43EA013189B201847047038C10B433
:101D600001248C4023EA04030384038C5DF8044BB4
:101D700002FA01F1194389B201847047038C10B44F
:101D800004248C4023EA04030384038C5DF8044B91
:101D900002FA01F1194389B201847047038C10B42F
:101DA00001248C4023EA040321F008040384183042
:101DB00074B10439C1F34E0112020B585DF8044BA3
:101DC00023F4E0430B500B5892B21A430A50704769
:101DD00049085DF8044B0B5823F070030B500B5867
:101DE0001A430A50704700BF038819B143F0020339
:101DF0000380704723F002031B041B0C0380704711
:101E0000038819B143F004030380704723F00403EF
:101E10001B041B0C03807047838819B143F08003B7
:101E20008380704723F080031B041B0C8380704762
:101E3000038823F008031B041B0C03800388194349
:101E400001807047838823F070031B041B0C838080
:101E50008388194381807047038923F007031B049B
:101E60001B0C03810389194301817047038923F007
:101E700080031B041B0C03810389194301817047F4
:101E800081847047818570478186704701877047DC
:101E900081877047A0F84010704700BF038B23F084
:101EA0000C031B041B0C0383038B19430183704732
:101EB000038B23F440631B041B0C0383038B43EA53
:101EC000012189B201837047838B23F00C031B042B
:101ED0001B0C8383838B194381837047838B23F48B
:101EE00040631B041B0C8383838B43EA012189B26B
:101EF00081837047038823F440731B041B0C038009
:101F00000388194301807047808E7047008F7047A7
:101F1000808F7047B0F84000704700BF808C7047DA
:101F2000008D7047038A194214BF012000207047BA
:101F3000C94389B201827047038A828911EA03008A
:101F400092B203D00A4214BF01200020704700BFA4
:101F5000C94389B20182704708B5264B984218D010
:101F6000254B984221D0254B98422AD0244B9842A9
:101F700003D0244B984230D008BD01214FF40020FB
:101F8000FFF7AEF800214FF40020BDE80840FFF74E
:101F9000A7B801214FF48040FFF796F800214FF4D5
:101FA0008040BDE80840FFF78FB801214FF40030B2
:101FB000FFF796F800214FF40030BDE80840FFF726
:101FC0008FB801214FF48020FFF78AF800214FF4E9
:101FD0008020BDE80840FFF783B801214FF480104E
:101FE000FFF77EF800214FF48010BDE80840FFF7AE
:101FF00077B800BF0038014000440040004800406E
:10200000004C004000500040028A294B70B592B24B
:102010000446C888274E22F4405202430D4689895F
:102020002282A089AA880340288913436A8903432E
:102030001343A381A38A9BB223F440730B4386B05E
:10204000A38201A8FEF7D4FFDDE90330A1892A6845
:10205000A589B44208BF03461748090403EB83036C
:102060004CBF5200920003EB8303B3FBF2F3A0FBDF
:1020700003214909642202FB11332A044FEA0111AA
:102080000AD41B013233A0FB0323C3F343130B43D6
:102090009BB2238106B070BDDB003233A0FB03236B
:1020A000C3F3421242EA01039BB2238106B070BD22
:1020B000F3E9FFFF003801401F85EB5100234FF487
:1020C00016514FF440220160C0E90132838170470C
:1020D00030B40B884D888C88028AC9882B432343EF
:1020E00092B20B4322F470621343038230BC7047F8
:1020F0000023038043808380C3807047838919B1A4
:1021000043F400538381704723F400531B041B0CDA
:102110008381704710B401F01F04C1F34211012301
:10212000012903FA04F311D002290CBF1030143036
:102130002AB102685DF8044B1343036070470268DC
:102140005DF8044B22EA0303036070470C30EFE7AD
:10215000838A12B119438182704723EA0101818287
:10216000704700BF038A23F00F031B041B0C03827C
:10217000038A194301827047838923F400631B0497
:102180001B0C83818389194381817047838919B12D
:1021900043F002038381704723F002031B041B0CEE
:1021A00083817047038A23F020031B041B0C0382E6
:1021B000038A194301827047038A19B143F48043AB
:1021C0000382704723F480431B041B0C0382704777
:1021D000C1F30801818070478088C0F30800704710
:1021E000838943F001038381704700BF038BDBB217
:1021F0000383038B43EA012101837047038B03F4BC
:102200007F430383038B194301837047838A19B18A
:1022100043F020038382704723F020031B041B0C30
:1022200083827047838A19B143F010038382704719
:1022300023F010031B041B0C83827047838A19B19F
:1022400043F008038382704723F008031B041B0C30
:1022500083827047838919B143F4004383817047B7
:10226000C3F30E0383817047838A19B143F400637B
:102270008382704723F400631B041B0C8382704726
:10228000838A23F004031B041B0C8382838A194373
:1022900081827047838A19B143F0020383827047B9
:1022A00023F002031B041B0C83827047038819422E
:1022B00014BF012000207047C94389B201807047D4
:1022C000C1F3421210B4012301F01F04012A03FAE2
:1022D00004F316D0022A0CBF028A828A13400288B5
:1022E00092B253B10123090A03FA01F10A4214BF61
:1022F000184600205DF8044B704718465DF8044B03
:10230000704782891340EAE7090A012303FA01F1C1
:10231000C94389B20180704740F0BF60024B40F46E
:102320000030D860704700BF00ED00E0F0B40178E5
:10233000C378012401F01F0294404E09C3B10F4A33
:102340004378D56882780E4FE843C0F30220C0F18D
:10235000040503FA05F50F23C34013402B4339440A
:102360001B01DBB281F8003347F82640F0BC704710
:102370002036034B43F82640F0BC704700ED00E0E8
:1023800000E100E021F0604121F07F01014B0143B9
:102390009960704700ED00E0044A136911B10343EE
:1023A0001361704723EA00031361704700ED00E0FA
:1023B000044A136804280CBF43F0040323F0040309
:1023C0001360704710E000E030B5012187B0084687
:1023D000FEF762FE01210220FEF7FEFA01214FF412
:1023E0000010FEF765FE01210820FEF755FE0E4C99
:1023F0000E4B0F48019301A9FEF74CFA0D4D0E4B01
:1024000002934FF080624FF4804320460121CDE9D2
:102410000352ADF81430FEF7C9FB204602A9FEF7BF
:102420004DFB07B030BD00BF005400400003031C4B
:10243000000C01400000FFBFA086010070B50546FA
:102440000E461748174C0121FEF7D4FB21461448CD
:10245000FEF7A2FC0028F9D0314600221048124CA9
:10246000FEF71EFC21460E48FEF796FC0028F9D028
:1024700029460B480D4CFEF70DFC21460848FEF797
:102480008BFC0028F9D00648084D01210446FEF7D0
:10249000BDFB29462046FEF77FFC0028F9D070BD21
:1024A0000054004001000300820007008400070080
:1024B00038B5104C237843F0040305464E211846E6
:1024C0002370FFF7BBFF322000F0E6F8207840EAE7
:1024D0000510C0B24E21FFF7B1FF237803F0FB03D4
:1024E00018464E212370FFF7A9FF3220BDE838407F
:1024F00000F0D2B8BC00002010B50D4A0446107898
:1025000071B900F0FE0318464E211370FFF796FFD5
:102510002009FFF7CDFF2046BDE81040FFF7C8BFF8
:1025200040F0010318464E211370FFF787FFEFE7D5
:10253000BC0000200121FFF7DFBF00BF03291DD829
:10254000DFE801F017100902543060F07F00C0B2DC
:102550000021FFF7D1BF143060F07F00C0B200212E
:10256000FFF7CABF403060F07F00C0B20021FFF724
:10257000C3BF40F080000021FFF7BEBF704700BF1F
:1025800010B50F2000F06EF80320FFF791FF042034
:1025900000F068F80320FFF78BFF642000F07CF860
:1025A0000320FFF785FF012000F05CF80220FFF711
:1025B0007FFF012000F056F800212820FFF79CFF44
:1025C000012000F04FF800210C20FFF795FF0120BB
:1025D00000F048F80C4C00210620FFF78DFF012089
:1025E00000F040F8237843F0080318464E2123708A
:1025F000FFF724FF237803F0FD03237018464E21D4
:10260000BDE81040FFF71ABFBC00002008B501204C
:102610000021FFF771FF40F2DC50BDE8084000F0F8
:102620003BB800BF10B50446007830B10121FFF778
:1026300063FF14F8010F0028F8D110BD00F0070067
:10264000C00038B540F040000D460021FFF754FFB0
:102650006C1E073514F8010F0121FFF74DFFAC4246
:10266000F8D138BD10B586B0044601A8FEF7C0FC0D
:10267000029B084AA2FB03235B0B04FB03F30093BA
:10268000009B2BB1009B013B0093009B002BF9D1D9
:1026900006B010BD5917B7D110B586B0044601A8D1
:1026A000FEF7A6FC029B084AA2FB03239B0D04FB3A
:1026B00003F30093009B2BB1009B013B0093009B15
:1026C000002BF9D106B010BD6BCA5F6B00B587B0A7
:1026D00001A8FEF78DFC029B0093009807B05DF8FF
:1026E00004FB00BFF8B5C7B2C0F30726C0F3074527
:1026F000040E40211448FFF7D9FD0028F9D03946CF
:102700001148FFF765FD40210F48FFF7CFFD002876
:10271000F9D031460C48FFF75BFD40210A48FFF72E
:10272000C5FD0028F9D029460748FFF751FD402193
:102730000548FFF7BBFD0028F9D021460248BDE857
:10274000F840FFF745BD00BF0038014010B4421803
:10275000415C93785478D0781B0403EB04230B443A
:1027600003EB00605DF8044B704700BF00B501212A
:1027700083B00820FEF790FC01A8FEF7E7F8044BB1
:102780000448019301A9FEF785F803B05DF804FB46
:1027900000400310000C014010B5064C2068FFF704
:1027A000A1FF2068FFF79EFF2068BDE81040FFF7FB
:1027B00099BF00BF2800002030B5012187B01F4D10
:1027C0001F4C0520FEF768FC01214FF48040FEF706
:1027D00063FC284669461B4B0093FEF75BF869468D
:1027E000284604224FF480638DF80320ADF80030B2
:1027F0004FF4E135FEF74EF8002320464FF4402217
:1028000002A9CDE90253ADF814300492FFF7FCFBA6
:102810002046012240F22551FFF77CFC2046012191
:10282000FFF76CFC25224FF4807301A88DF804207B
:10283000ADF80630FFF77AFD07B030BD0008014063
:10284000003801400002031810B540F2255182B053
:102850001B48FFF735FD08B902B010BD1848194CE8
:10286000FFF7BAFCC0B28DF807002378012B15D012
:10287000154B16481A789DF80710D2B2C9B2815488
:102880001A780132D2B21A701A78642A0ED80178F6
:102890001A7891420ED00E4BC8221A71084840F2A5
:1028A000255102B0BDE81040FFF72EBD00221A707E
:1028B0002270F3E70021012219702270EEE700BFB9
:1028C00000380140BD000020C4120020601200202A
:1028D00028000020024B5B78012B00D070475BE79B
:1028E0006012002010B5074C2378012B00D010BDDA
:1028F000054B5B78012B02D00023237010BDFFF73E
:102900004BFFF9E7BD0000206012002038B50B78BE
:102910000D4604466BB140212046FFF7C7FC002856
:10292000F9D029782046FFF753FC15F8013F002B1A
:10293000F1D138BD38B501214FF40070FEF7ACFB82
:102940001B48FEF703F81B4A936943F004039361A5
:102950004FF40040FEF71EFB174B18484FF48072EF
:1029600019469A804FF46025002202249D601C7451
:102970001A60DA60FDF782FD10480121FDF7AAFD1B
:102980000E48FDF7C5FD0D48FDF7C8FD0028FAD13A
:102990000A48FDF7C7FD0948FDF7CAFD04460028AF
:1029A000F9D101210548FDF795FD204638BD00BF4E
:1029B0004812002000100240C812002000240140EC
:1029C00038B501210420FEF767FB1748174CFDF7C7
:1029D000BDFF174B174A1A601968174A0A431A6055
:1029E000DA68002142F001020125DA600A20E16282
:1029F0006563FFF737FE20462946FDF79DFD20461B
:102A000003689B07FCD500210848FDF795FD0749A1
:102A100019230020CA6C013B1044FBD1074BA3FBD8
:102A20000030C0F3CF0038BD481200200024014020
:102A30000008014000F0F0FF030304001F85EB5184
:102A400038B5174B174A1A601A68174C42F44032CF
:102A500042F034021A60DA68022142F002020025D4
:102A6000DA600A20E5626163FFF7FCFD2046012180
:102A7000FDF762FD204603689B07FCD500210A484C
:102A8000FDF75AFD084919230020CA6C013B104488
:102A9000FBD1064BA3FB0030C0F3CF0038BD00BF15
:102AA0000008014000F0F0FF002401401F85EB51B9
:102AB00038B51B4B1B4A1A601A681B4C42F48962DA
:102AC0001A60DA68002142F001020125DA600A206A
:102AD000E1626563FFF7C6FD29462046FDF72CFD40
:102AE00023689B07FCD500210F48FDF725FDE26C0C
:102AF00040F6B8339A4201DC002038BD01224FF481
:102B000080410A48FDF742FFC820FFF7ABFD0022D5
:102B10004FF480410548FDF739FF012038BD00BF63
:102B20000008014000F0F0FF00240140000C0140CB
:102B300000F108034FF0FF31002281600260436022
:102B4000C0E90333704700BF00230361704700BF33
:102B50004368026810B49C688C609C684B600132CA
:102B6000616099605DF8044B08610260704700BFC6
:102B700030B40D686B1C11D000F1080200E01A4659
:102B800053681C68AC42FAD904684B600134996000
:102B90008A6051600861046030BC70470269536804
:102BA000F2E700BF036910B4D0E901125C688A60E3
:102BB0008442516008BF5A601A685DF8044B0021D6
:102BC000013A01611A601868704700BF70B5164677
:102BD000026C856B04462AB90668013546B30020AD
:102BE000A56370BD86B9806803F0A2FAA368216C62
:102BF00062680B44934205F10105A360EFD323689B
:102C0000A3603046A56370BDC06803F091FA226CE2
:102C1000E3682168524213448B42E36002D2636846
:102C20001A44E260022E08D001350020A56370BD71
:102C3000406801F08FFE6660D2E7002DCFD10125FC
:102C40000020CDE7026C72B10B46C16810B4446835
:102C50001144A142C16024BF0168C1605DF8044B0A
:102C6000184603F065BA70474FF0A00383F311884C
:102C7000BFF36F8FBFF34F8FFEE700BF70B5846C5B
:102C800082B00190A4B10A46E36BA16B994206D2CF
:102C9000A16B8B420ED80026304602B070BD4FF0BB
:102CA000A00383F31188BFF36F8FBFF34F8FFEE74D
:102CB000FFF7DAFF94F8455001A92046FFF786FF99
:102CC0006DB26B1C064604D06B1C5BB284F84530B9
:102CD000E2E7636A002BDFD004F1240001F0D8FCA6
:102CE000002818BF0126D7E770B5054602F0ACFBF7
:102CF00095F8454064B2002C1CDD05F1240606E081
:102D0000FFF7BCFF78B9013CE3B25CB293B1AB6CA6
:102D100000212846002BF3D16B6A304653B101F0F5
:102D2000B7FC0028EFD0013C01F09CFDE3B25CB29F
:102D3000002BECD1FF2385F8453002F0A7FB02F011
:102D400083FB95F8444064B2002C16DD2B69A3B1D7
:102D500005F1100605E0013CE3B25CB26BB12B69F2
:102D60005BB1304601F094FC0028F4D0013C01F046
:102D700079FDE3B25CB2002BF1D1FF2385F844303A
:102D8000BDE8704002F082BB38B5E0B104460D46A4
:102D900002F05AFBD4E90F032268A26000FB03F0A3
:102DA000C31A134400210244FF20A163E36084F8A6
:102DB0004400626084F845003DB923698BB902F094
:102DC00065FB012038BDFFF74FFF04F11000FFF74E
:102DD000AFFE04F12400FFF7ABFE02F057FB012029
:102DE00038BD04F1100001F053FC0028E7D0044B7B
:102DF0004FF080521A60BFF34F8FBFF36F8FDEE743
:102E000004ED00E070B506460D4651B100FB01F03F
:102E10004C3002F033FC044698B100F14C030360DF
:102E200005E04C2002F02AFC044650B12460C4E9BD
:102E30000F6501212046FFF7A7FF0023A36420466A
:102E400070BD0024204670BD40B94FF0A00383F34D
:102E50001188BFF36F8FBFF34F8FFEE7D2E700BF3C
:102E600040B94FF0A00383F31188BFF36F8FBFF316
:102E70004F8FFEE7884208D24FF0A00383F31188FA
:102E8000BFF36F8FBFF34F8FFEE710B50C460021E5
:102E9000FFF7B8FF00B1846310BD00BF2DE9F04714
:102EA00084B00192002876D0002968D0022B0BD183
:102EB000C26B012A08D04FF0A00383F31188BFF33F
:102EC0006F8FBFF34F8FFEE704461E46894601F021
:102ED000D7FC0746002867D00027DFF850A14FF045
:102EE000000807E002F0D2FA2046FFF7FDFE01F0ED
:102EF000D9F9012702F0A8FAA26BE36B9A4263D3D7
:102F0000022E61D0019D002D00F08480002F57D04B
:102F100002F0BCFA01F000F902F096FA94F844309D
:102F2000FF2B08BF84F8448094F84530FF2B08BF7E
:102F300084F8458002F0AAFA01A902A801F04CFC2D
:102F4000002860D102F080FAA26BE36B9A42C9D1EB
:102F500002F09CFA019904F1100001F033FB2046C5
:102F6000FFF7C2FE01F09EF90028C2D14FF0805356
:102F7000CAF80030BFF34F8FBFF36F8FB9E7026C11
:102F8000002A93D04FF0A00383F31188BFF36F8F13
:102F9000BFF34F8FFEE74FF0A00383F31188BFF319
:102FA0006F8FBFF34F8FFEE7019B002B95D04FF043
:102FB000A00383F31188BFF36F8FBFF34F8FFEE73A
:102FC00002A801F0FFFBA3E7494632462046FFF77F
:102FD000FDFDA36C53B131462046FFF74FFE48B9C3
:102FE00002F054FA012004B0BDE8F087636AABB97F
:102FF0000028F5D00D4B4FF080521A60BFF34F8F71
:10300000BFF36F8FECE72046FFF76EFE01F04AF941
:103010000020E8E702F03AFA2846E4E704F1240049
:1030200001F036FB0028DBD0E4E700BF04ED00E050
:1030300010B500210120FFF7E5FE044638B100235A
:10304000C0E90033C3601A461946FFF727FF204640
:1030500010BD00BF38B538B14568044601F00AFC20
:1030600085420AD0002038BD4FF0A00383F31188B9
:10307000BFF36F8FBFF34F8FFEE7E368013BE36061
:103080000BB1012038BD20461A461946FFF706FF4E
:10309000012038BD2DE9F843002835D041B3022B7B
:1030A0000BD1C46B012C08D04FF0A00383F311881F
:1030B000BFF36F8FBFF34F8FFEE704461F46904666
:1030C000894602F0ADFAEFF311864FF0A00383F3C7
:1030D0001188BFF36F8FBFF34F8FA26BE36B9A42E0
:1030E0001BD3022F19D0002086F31188BDE8F88386
:1030F000046C002CD3D04FF0A00383F31188BFF3EE
:103100006F8FBFF34F8FFEE74FF0A00383F311885B
:10311000BFF36F8FBFF34F8FFEE794F845504946DA
:103120006DB23A462046FFF751FD6B1C08D06B1C70
:103130005BB284F84530012086F31188BDE8F8833E
:10314000A36C63B139462046FFF798FD0028F2D002
:10315000B8F1000FEFD00120C8F80000C4E7636A9F
:10316000002BE8D004F1240001F092FA0028EFD1FE
:10317000E1E700BF70B3036C43B14FF0A00383F3EA
:103180001188BFF36F8FBFF34F8FFEE7036853B310
:1031900070B504460E4602F043FAEFF311854FF086
:1031A000A00383F31188BFF36F8FBFF34F8FA26B20
:1031B000E36B934223D994F8453001325BB2A263AA
:1031C0005A1C20D001335BB284F84530012085F3CE
:1031D000118870BD4FF0A00383F31188BFF36F8F88
:1031E000BFF34F8FFEE74368002BD1D04FF0A00311
:1031F00083F31188BFF36F8FBFF34F8FFEE700207B
:1032000085F3118870BDA36C53B120460021FFF7F0
:1032100035FD0028DAD0002ED8D001203060EFE74D
:10322000636A002BD2D004F1240001F031FA0028A7
:10323000F1D1CBE72DE9F04385B00192002871D0A0
:10324000002956D004460F4601F01AFB002844D04E
:1032500002F0FAF8A56B002D40F08780019B002B4F
:1032600035D002A801F0AEFADFF834912E4604F111
:10327000240802F00BF900F04FFF02F0E5F894F893
:103280004430FF2B08BF84F8446094F84530FF2B8E
:1032900008BF84F8456002F0F9F801A902A801F01E
:1032A0009BFA002831D102F0CFF8A36B002B42D05B
:1032B00002F0ECF82046FFF717FD00F0F3FF02F0F4
:1032C000C3F8A56B002D50D1019B002BD1D102F08A
:1032D000DDF8002005B0BDE8F083019B002BB7D0DE
:1032E0004FF0A00383F31188BFF36F8FBFF34F8FAD
:1032F000FEE7036C002BA5D04FF0A00383F31188E9
:10330000BFF36F8FBFF34F8FFEE72046FFF7ECFC54
:1033100000F0C8FF02F098F8A36B002BD7D002F0A2
:10332000B5F8CCE74FF0A00383F31188BFF36F8F9C
:10333000BFF34F8FFEE702F0A9F80199404601F074
:1033400041F92046FFF7D0FC00F0ACFF0028B6D1D1
:103350004FF08053C9F80030BFF34F8FBFF36F8F2A
:1033600002F072F8A56B002DAED039462046013D23
:10337000FFF768FCA56323691BB902F087F80120F9
:10338000A8E704F1100001F083F90028F5D0044B00
:103390004FF080521A60BFF34F8FBFF36F8FECE78F
:1033A00004ED00E02DE9F04184B0019150B1056CCD
:1033B0008DB14FF0A00383F31188BFF36F8FBFF37C
:1033C0004F8FFEE74FF0A00383F31188BFF36F8F99
:1033D000BFF34F8FFEE7044601F052FA064600287D
:1033E0005CD02E4602F030F8A36BDFF86C8100272A
:1033F00083BB019B002B00F0A280002E42D002F084
:1034000045F800F089FE02F01FF894F84430FF2BD5
:1034100008BF84F8447094F84530FF2B08BF84F847
:10342000457002F033F801A902A801F0D5F9E8B916
:1034300002F00AF8A36B002B3DD002F027F82046DB
:10344000FFF752FC00F02EFF01F0FEFFA36B0126F8
:10345000002BCED02268013BA363002A5CD02369F5
:10346000002B4AD102F012F8012513E02046FFF7A5
:103470003BFC00F017FF01F0E7FFA36B33B102F054
:1034800005F8E1E702A801F09DF9B8E701F0FEFFB9
:10349000002D45D1284604B0BDE8F081019B43B121
:1034A0004FF0A00383F31188BFF36F8FBFF34F8FEB
:1034B000FEE7054696E701F0E9FF2368A3B101990D
:1034C00004F1240001F07EF82046FFF70DFC00F027
:1034D000E9FE0028B8D14FF08053C8F80030BFF3A0
:1034E0004F8FBFF36F8FAFE701F0AEFF606801F061
:1034F000D7F9054601F0CAFFE1E704F1100001F039
:10350000C7F80028AED0144B4FF080521A60BFF3BA
:103510004F8FBFF36F8FA5E701F0E6FA60609EE77B
:1035200001F092FF616A19B1236B1968C1F10501BD
:10353000606801F067FA002501F0A8FFAAE745B12D
:103540004FF0A00383F31188BFF36F8FBFF34F8F4A
:10355000FEE701F09BFF9DE704ED00E0A8B170B528
:10356000466804460D4601F085F9864208D0294692
:103570002046FFF717FF10B1E3680133E36070BD29
:10358000E3680133E360012070BD4FF0A00383F3D3
:103590001188BFF36F8FBFF34F8FFEE72DE9F04126
:1035A00084B00192002870D0002955D004460E4600
:1035B00001F066F9002843D001F046FFA56B002D0D
:1035C00040F08280019B002B34D002A801F0FAF871
:1035D000DFF82C8104F1240701F058FF00F09CFD76
:1035E00001F032FF94F84430FF2B08BF84F84450B8
:1035F00094F84530FF2B08BF84F8455001F046FF92
:1036000001A902A801F0E8F8002831D101F01CFF5F
:10361000A36B002B42D001F039FF2046FFF764FB7B
:1036200000F040FE01F010FFA36B002B4CD1019B7A
:10363000002BD1D101F02AFF002004B0BDE8F081B9
:10364000019B002BB8D04FF0A00383F31188BFF388
:103650006F8FBFF34F8FFEE7036C002BA6D04FF0A8
:10366000A00383F31188BFF36F8FBFF34F8FFEE783
:103670002046FFF739FB00F015FE01F0E5FEA36BD5
:10368000002BD7D001F002FFCCE74FF0A00383F36B
:103690001188BFF36F8FBFF34F8FFEE701F0F6FE87
:1036A0000199384600F08EFF2046FFF71DFB00F021
:1036B000F9FD0028B6D14FF08053C8F80030BFF3B1
:1036C0004F8FBFF36F8FADE731462046E568FFF7B8
:1036D000B9FA636AE5601BB901F0D8FE0120ACE7D6
:1036E00004F1240000F0D4FF0028F5D0044B4FF083
:1036F00080521A60BFF34F8FBFF36F8FECE700BFAC
:1037000004ED00E02DE9F84310B3A9B10546904659
:10371000894601F085FFEFF311874FF0A00383F393
:103720001188BFF36F8FBFF34F8FAC6BCCB92046BE
:1037300087F31188BDE8F883036C002BE6D04FF0C7
:10374000A00383F31188BFF36F8FBFF34F8FFEE7A2
:103750004FF0A00383F31188BFF36F8FBFF34F8F38
:10376000FEE795F844604946284676B2FFF76AFAC4
:10377000013C731CAC6308D0731C5BB285F8443009
:10378000012087F31188BDE8F8832B69002BF7D05F
:1037900005F1100000F07CFF0028F1D0B8F1000F17
:1037A000EED00120C8F80000C2E700BFB0B1036C42
:1037B00049B1E3B94FF0A00383F31188BFF36F8FD2
:1037C000BFF34F8FFEE7002BF4D04FF0A00383F33D
:1037D0001188BFF36F8FBFF34F8FFEE74FF0A00349
:1037E00083F31188BFF36F8FBFF34F8FFEE770B580
:1037F00004460D4601F014FFEFF311864FF0A003CD
:1038000083F31188BFF36F8FBFF34F8FA06B10B995
:1038100086F3118870BD29462046E568FFF712FA45
:10382000E5600120F4E700BF40B110B5044601F0A7
:103830000BFEA46B01F02AFE204610BD4FF0A00342
:1038400083F31188BFF36F8FBFF34F8FFEE700BF85
:1038500050B110B5044601F0F7FDA36BE46BE41A18
:1038600001F014FE204610BD4FF0A00383F3118831
:10387000BFF36F8FBFF34F8FFEE700BF08B1806BC0
:1038800070474FF0A00383F31188BFF36F8FBFF32E
:103890004F8FFEE708B101F04DBF4FF0A00383F357
:1038A0001188BFF36F8FBFF34F8FFEE720B1806B9E
:1038B000B0FA80F0400970474FF0A00383F31188FD
:1038C000BFF36F8FBFF34F8FFEE700BF30B1836B45
:1038D000C06BC01AB0FA80F0400970474FF0A003E7
:1038E00083F31188BFF36F8FBFF34F8FFEE700BFE5
:1038F00070B504460D46164601F0A6FD94F8443016
:10390000FF2B04BF002384F8443094F84530FF2B8C
:1039100004BF002384F8453001F0B8FDA36B23B148
:103920002046BDE87040FFF7DFB904F124003246BD
:10393000294600F08DFE2046BDE87040FFF7D4B95F
:1039400040B94FF0A00383F31188BFF36F8FBFF32B
:103950004F8FFEE70421FFF755BA00BF38B5044684
:103960000D4601F071FDA36C23B1002401F08EFD22
:10397000204638BDA26B22B11C4601F087FD2046CF
:1039800038BDA564012401F081FD204638BD00BF8B
:1039900038B5836C8B4201D0002038BD856B002D7B
:1039A000FAD1044601F050FDA56401F06FFD01203D
:1039B00038BD00BF00B583B00A46002301A90193BA
:1039C000FFF738FC019803B05DF804FB00B5002355
:1039D00083B01A4601A90193FFF794FE019803B042
:1039E0005DF804FB80B5134C134F4FF0805614E084
:1039F00001F02AFD2369DD68281DFFF7D3F8A369CC
:103A0000013BA3612368013B236001F03FFD286B6C
:103A100001F090FE284601F08DFE2368002BE7D1CF
:103A2000E369012BF9D93E60BFF34F8FBFF36F8F6E
:103A3000F3E700BFC000002004ED00E068B10B4ACE
:103A40004369934201D000207047806A1433984242
:103A5000F9D0B0FA80F0400970474FF0A00383F32B
:103A60001188BFF36F8FBFF34F8FFEE74001002037
:103A7000044BD3F8A820D268D2685268C3F8AC20AF
:103A8000704700BFC0000020F8B51F4CD4F8B050FC
:103A9000D4F8B4300646181D0F46FFF783F850B926
:103AA000D4F8B420D4F8B830D16A01228A4023EA8D
:103AB0000203C4F8B830731C1BD0D4F8B430AD196D
:103AC0005D6008D3D4F8BC00D4F8B410BDE8F84069
:103AD0000431FFF74DB8D4F8A800D4F8B41004317D
:103AE000FFF746F8D4F8AC30AB4288BFC4F8AC500E
:103AF000F8BD002FE1D0D4F8B41004480431BDE87B
:103B0000F840FFF725B800BFC000002040010020AA
:103B10002DE9F84F4FEA8209074648460E46984677
:103B200001F0ACFD002879D00546502001F0A6FD3B
:103B3000044600287ED0731E0563093600F1330168
:103B400013F8012F01F8012F0AB1B342F8D10A9BF3
:103B5000042B28BF04234FF0000B261DE3622364CF
:103B6000304684F83DB0C4F844B09A46FEF7ECFF06
:103B700004F11800FEF7E8FFA9F10400CAF10503FB
:103B80002844A361C4F848B020F0070084F84CB082
:103B9000246164624246394601F020FC0B9B2060A0
:103BA00003B11C60434D01F04FFCAB690133AB61C5
:103BB000D5F8B430002B43D0D5F8E830E06A8BB3A9
:103BC00005F11C08D5F8B830012707FA00F21A43AE
:103BD000D5F8EC30C5F8B82000EB80003B44314606
:103BE00008EB8000C5F8EC30FEF7B2FF01F04EFCA8
:103BF000D5F8E8307BB1D5F8B420E36AD26A9A42AE
:103C000009D22D4B4FF080521A60BFF34F8FBFF394
:103C10006F8F384600E03846BDE8F88F4FF0FF3030
:103C2000BDE8F88FD5F8B430DB6A834298BFC5F899
:103C3000B440C5E7284601F07DFD4FF0FF30EBE7CB
:103C4000C5F8B440AB69012B03D0E06A05F11C084C
:103C5000B8E705F11C084046FEF76AFF05F13000A1
:103C6000FEF766FF05F14400FEF762FF05F158001C
:103C7000FEF75EFF05F1C00905F16C00FEF758FF85
:103C800005F1D4074846FEF753FF3846FEF750FFCC
:103C900005F19400FEF74CFF281DFEF749FF05F1E2
:103CA0008000FEF745FFC5F8A890E06AC5F8BC7033
:103CB00088E700BFC000002004ED00E070B50546B5
:103CC000334C01F0C1FB002D49D02E1D3046FEF7CC
:103CD00069FF30B9E96A01EB810304EB8303DB6917
:103CE00063B3AB6A1BB105F11800FEF75BFFD4F8B4
:103CF000EC30D4F8B4200133AA42C4F8EC3026D01A
:103D0000A369286B013BA36101F014FD284601F073
:103D100011FDD4F8A8301B685BB1FFF7A9FE01F0D4
:103D2000B5FBD4F8E8301BB1D4F8B430AB4219D0AD
:103D300070BD4FF0FF33C4F8AC30F0E7D4F8B830C2
:103D400001228A4023EA0203C4F8B830C9E73146A9
:103D50001048FEF7FDFE236801332360DFE7D4F847
:103D6000B450B2E7D4F8F03043B14FF0A00383F37E
:103D70001188BFF36F8FBFF34F8FFEE7064B4FF0F5
:103D800080521A60BFF34F8FBFF36F8F70BD00BFBB
:103D9000C0000020C400002004ED00E008B370B5AE
:103DA000194CD4F8B430834219D0054601F04CFBCD
:103DB0006E6901F06BFBD4F8A830B34220D0D4F880
:103DC000BC30B3421CD004F180039E4212D00434B4
:103DD000A64217D0002E0CBF0420012070BD002089
:103DE00070BD4FF0A00383F31188BFF36F8FBFF353
:103DF0004F8FFEE7AB6A002B14BF0220032070BD7B
:103E0000022070BD042070BDC000002010B5044623
:103E100001F01AFB24B1E46A01F038FB204610BD22
:103E2000034BD3F8B440E46A01F030FB204610BDE8
:103E3000C000002010B5044601F0F2FBEFF311833F
:103E40004FF0A00282F31188BFF36F8FBFF34F8F43
:103E50001CB1E06A83F3118810BD034AD2F8B44064
:103E6000E06A83F3118810BDC000002004292DE909
:103E7000F84308D94FF0A00383F31188BFF36F8F85
:103E8000BFF34F8FFEE704460E4601F0DDFA002C2B
:103E900055D0236C9E424ED02C4D0BD9D5F8B42072
:103EA000A24250D0D5F8B420D76AB7428CBF0027C1
:103EB000012705E0D5F8B4703F1BB7FA87F77F09F3
:103EC000D4F82C8026644345A36908BFE662002B22
:103ED000A4BFC6F10506A6611D4E626908EB880302
:103EE00006EB83039A421DD104F104094846FEF70C
:103EF00059FE40B9D5F8B830012202FA08F823EA91
:103F00000803C5F8B830E06AD5F8B820012383402B
:103F100000EB80001343494606EB8000C5F8B8303B
:103F2000FEF716FE3FB10B4B4FF080521A60BFF305
:103F30004F8FBFF36F8FBDE8F84301F0A7BA034B73
:103F4000D3F8B440A5E70027BAE700BFC0000020BF
:103F5000DC00002004ED00E0F8B580B11E4DD5F87E
:103F6000B43083420AD0044601F06EFA2046FFF7CF
:103F700065FD68B9BDE8F84001F088BAF8BD4FF0BA
:103F8000A00383F31188BFF36F8FBFF34F8FFEE75A
:103F9000261D3046FEF706FEE06AD5F8B87001230C
:103FA00005F11C02834000EB80003B4302EB8000E4
:103FB0003146C5F8B830FEF7CBFDD5F8B430E26A2B
:103FC000DB6A9A42D6D3054B4FF080521A60BFF39A
:103FD0004F8FBFF36F8FCDE7C000002004ED00E0EE
:103FE00000283AD02DE9F041044601F019FBEFF327
:103FF00011874FF0A00383F31188BFF36F8FBFF3D6
:104000004F8F2046FFF71AFD054608B31B4ED6F822
:10401000F0305BBBD6F8B430E56ADB6A04F1040823
:104020009D42404634BF00250125FEF7BBFDE06AF6
:10403000D6F8B8400123834006F11C0200EB800053
:104040002343414602EB8000C6F8B830FEF780FDFE
:1040500087F311882846BDE8F0814FF0A00383F371
:104060001188BFF36F8FBFF34F8FFEE704F1180184
:1040700006F19400FEF76CFD0025E9E7C000002082
:1040800030B51A4C1A491B4883B004F1F4030025DB
:10409000CDE9005382222B46FFF73AFD012803D0D9
:1040A00001301AD003B030BD00F062FF0128F7D113
:1040B0004FF0A00383F31188BFF36F8FBFF34F8FCF
:1040C0004FF0FF33C4F8AC30C4F8E800C4F8B05087
:1040D00003B0BDE8304001F049BA4FF0A00383F3CC
:1040E0001188BFF36F8FBFF34F8FFEE7C000002032
:1040F000B8690008E53900084FF0A00383F3118880
:10410000BFF36F8FBFF34F8F024B0022C3F8E8203D
:1041100001F088B9C0000020034AD2F8F030013322
:10412000C2F8F030704700BFC0000020014BD3F848
:10413000B0007047C000002008B501F071FA024BD2
:10414000D3F8B00008BD00BFC0000020014B986943
:10415000704700BFC000002008B134307047074BE3
:10416000D3F8B4000028F8D14FF0A00383F31188EE
:10417000BFF36F8FBFF34F8FFEE700BFC00000207B
:104180002DE9F047454CD4F8F030002B5CD1D4F841
:10419000B0600136C4F8B060D6B9D4F8A8301B6856
:1041A000002B6CD1D4F8A830D4F8BC20C4F8A820D7
:1041B000C4F8BC30D4F8F8300133C4F8F830D4F87F
:1041C000A8301B68002B66D14FF0FF33C4F8AC3029
:1041D000D4F8AC30B34245D8DFF8C4A000254FF086
:1041E000010927E0D4F8A830DB68DF687B6807F1B5
:1041F00004089E4240464BD3FEF7D4FCBB6A07F14D
:1042000018000BB1FEF7CEFCF86AD4F8B82009FA12
:1042100000F300EB8000134341460AEB8000C4F832
:10422000B830FEF795FCD4F8B430FA6ADB6A9A42EB
:1042300028BF0125D4F8A8301B68002BD2D14FF03D
:10424000FF33C4F8AC300EE0D4F8FC300133C4F8CE
:10425000FC300025D4F80031002B0CBF284601208B
:10426000BDE8F0870025D4F8B430DB6A03EB8303A4
:1042700004EB8303DB69022B28BF0125EAE74FF03B
:10428000A00383F31188BFF36F8FBFF34F8FFEE757
:10429000C4F8AC30E7E7FFF7EBFB99E7C00000207C
:1042A000DC0000202DE9F041394CD4F8F03043B95E
:1042B0004FF0A00383F31188BFF36F8FBFF34F8FCD
:1042C000FEE701F0C1F8D4F8F030013BC4F8F0305B
:1042D000D4F8F050002D48D1A369002B45D0012619
:1042E00004F11C07D4F8943033B3D4F8A030DD685F
:1042F00005F1040805F11800FEF754FC4046FEF7EE
:1043000051FCE86AD4F8B82006FA00F300EB80000C
:104310001343414607EB8000C4F8B830FEF718FCA1
:10432000D4F8B430EA6ADB6A9A42DBD3C4F800619D
:10433000D4F89430002BD8D13DB1D4F8A8301B6804
:104340001BBB4FF0FF33C4F8AC30D4F8FC504DB178
:104350000126FFF715FF08B1C4F80061013DF8D14F
:10436000C4F8FC50D4F800312BB9002401F08EF8C9
:104370002046BDE8F081074B4FF080521A60BFF332
:104380004F8FBFF36F8F0124F0E7FFF771FBDCE77E
:10439000C000002004ED00E060B341B94FF0A0037D
:1043A00083F31188BFF36F8FBFF34F8FFEE710B514
:1043B0001D4CD4F8F02032BB0246D4F8F000013096
:1043C000C4F8F0000B461168D4F8B000CB182CBF2D
:1043D00001240024814213601ED9F4B9FFF762FF63
:1043E00038B9124B4FF080521A60BFF34F8FBFF3B2
:1043F0006F8F10BD4FF0A00383F31188BFF36F8F51
:10440000BFF34F8FFEE74FF0A00383F31188BFF394
:104410006F8FBFF34F8FFEE70CB99842DED2181AA8
:104420000021FFF731FBD9E7C000002004ED00E0D8
:1044300008B5B0B10F4BD3F8F01041B14FF0A00365
:1044400083F31188BFF36F8FBFF34F8FFEE7D3F86D
:10445000F0200132C3F8F020FFF716FBFFF722FF30
:1044600038B9054B4FF080521A60BFF34F8FBFF33E
:104470006F8F08BDC000002004ED00E0164AD2F89E
:10448000F0301BB10123C2F800317047C2F800318F
:10449000D2F8B830B3FA83F3DBB2C3F11F0303EBF6
:1044A00083039B00D018C16941B94FF0A00383F387
:1044B0001188BFF36F8FBFF34F8FFEE7016A13447C
:1044C000496801622433994204BF49680162CB689C
:1044D000C2F8B430704700BFC000002070B5054678
:1044E000354C00F0B1FF002D49D02E1D3046FEF7AF
:1044F00059FB30B9E96A01EB810304EB8303DB6903
:104500004BB3AB6A1BB105F11800FEF74BFB31460C
:104510002A48FEF71DFB95F84C30012B04BF002301
:1045200085F84C3000F0B2FFD4F8E830E3B9D4F8A5
:10453000B430AB4200D070BDD4F8E8303BB3D4F80F
:10454000F03063B34FF0A00383F31188BFF36F8F94
:10455000BFF34F8FFEE7D4F8B83001228A4023EA38
:104560000203C4F8B830CCE700F06EFFD4F8A830EE
:104570001B683BB1FFF77CFA00F088FFD7E7D4F85F
:10458000B450B2E74FF0FF33C4F8AC30F4E7D4F8DE
:104590008010A26991420BD1C4F8B43070BD084BB1
:1045A0004FF080521A60BFF34F8FBFF36F8F70BD13
:1045B000BDE87040FFF762BFC0000020400100204E
:1045C00004ED00E068B110B50A4B0C46D3F8B41006
:1045D0001831FEF7CDFA20460121BDE81040FFF763
:1045E00053BA4FF0A00383F31188BFF36F8FBFF36B
:1045F0004F8FFEE7C000002038B560B1134DD5F8ED
:10460000F0308BB94FF0A00383F31188BFF36F8FA5
:10461000BFF34F8FFEE74FF0A00383F31188BFF382
:104620006F8FBFF34F8FFEE714460B46D5F8B420CB
:10463000D5F8B41043F0004393611831FEF788FABF
:1046400020460121BDE83840FFF71EBAC000002017
:1046500038B590B10D4B0D46D3F8B410144618314F
:10466000FEF776FA002C08BF2846214618BF4FF007
:10467000FF30BDE83840FFF707BA4FF0A00383F3DF
:104680001188BFF36F8FBFF34F8FFEE7C00000208C
:10469000F8B5C368DD6875B305F118061A4C3046E5
:1046A000FEF780FAD4F8F0307BB1314604F1940083
:1046B000FEF74EFAD4F8B430EA6ADB6A9A4286BF53
:1046C0000120C4F800010020F8BD2E1D3046FEF781
:1046D00069FAE86AD4F8B8700123834004F11C0237
:1046E00000EB80003B43314602EB8000C4F8B83059
:1046F000FEF72EFADEE74FF0A00383F31188BFF335
:104700006F8FBFF34F8FFEE7C0000020F8B51E4C3F
:10471000D4F8F03043B94FF0A00383F31188BFF30E
:104720006F8FBFF34F8FFEE7C56841F00041016016
:104730000DB32F1DFEF736FA3846FEF733FAE86A56
:10474000D4F8B8C0012604F11C0206FA00F300EB0D
:10475000800043EA0C0302EB80003946C4F8B8300D
:10476000FEF7F6F9D4F8B430EA6ADB6A9A4288BFF9
:10477000C4F80061F8BD4FF0A00383F31188BFF3C4
:104780006F8FBFF34F8FFEE7C000002070B110B5F0
:10479000044600F059FE0A4BD3F8F820D3F8B030A5
:1047A000C4E90023BDE8104000F070BE4FF0A00344
:1047B00083F31188BFF36F8FBFF34F8FFEE700BF06
:1047C000C0000020034BD3F8F820D3F8B030C0E984
:1047D00000237047C0000020F8B500B3B1B10D460A
:1047E000044600F031FE2B681D4A591CD2F8B00077
:1047F0002CD0D4E90071D2F8F860B74218D08142C9
:1048000016D8012500F042FE2846F8BD4FF0A0035F
:1048100083F31188BFF36F8FBFF34F8FFEE74FF025
:10482000A00383F31188BFF36F8FBFF34F8FFEE7B1
:10483000461AB3420FD91B1A0B44D2F8F810D2F81B
:10484000B0202B600025C4E90012DBE7002500F052
:104850001DFE2846F8BD00232B600125D2E700BFCE
:10486000C0000020024B0122C3F80021704700BFA6
:10487000C0000020014BD3F8B4007047C0000020F6
:10488000064BD3F8E82032B1D3F8F030002B0CBF40
:104890000220002070470120704700BFC0000020A8
:1048A00038B3F8B5294DC36AD5F8B420D26A93421B
:1048B00016D28269002A05DBD5F8B420D26AC2F18B
:1048C00005028261224E426903EB830306EB8303F8
:1048D0009A420FD0D5F8B430DB6AC3620120F8BD2C
:1048E000D5F8B430006CDB6A98422CBF0020012060
:1048F000F8BD7047071D04463846FEF753F978B9EE
:10490000E26A02EB820305EB8303DB6943B9D5F866
:10491000B830012101FA02F223EA0203C5F8B830E7
:10492000D5F8B430D5F8B820D86AE062012404FA8A
:1049300000F300EB800006EB800013433946C5F816
:10494000B830FEF705F92046F8BD00BFC0000020D2
:10495000DC000020C8B1F8B5284DD5F8B43083424A
:1049600008D04FF0A00383F31188BFF36F8FBFF31C
:104970004F8FFEE75B6C53B1C16A026C013B914201
:10498000436400D063B10020F8BD002070474FF0B1
:10499000A00383F31188BFF36F8FBFF34F8FFEE740
:1049A000071D04463846FEF7FDF870B9E06A00EBD3
:1049B000800305EB8303DB693BB9D5F8B8300122EE
:1049C000824023EA0203C5F8B830236CD5F8B8C09A
:1049D0000B48E362012606FA03F23946C3F10507E4
:1049E00003EB830342EA0C0200EB8300A761C5F8E6
:1049F000B820FEF7ADF83046F8BD00BFC00000207B
:104A0000DC000020A8B1F8B5446C4CB1026CC36A5C
:104A10008A4238BF0A46934201D0012C0AD0F8BD21
:104A20004FF0A00383F31188BFF36F8FBFF34F8F55
:104A3000FEE77047224DD5F8B410814226D0816937
:104A4000C2620029A8BFC2F105021E4EA8BF826142
:104A500003EB8303426906EB83039A42DFD1071D10
:104A600004463846FEF79EF8E26AC0B1012393403F
:104A70009000D5F8B8401044234306EB8000394637
:104A8000C5F8B830BDE8F840FEF762B84FF0A003B3
:104A900083F31188BFF36F8FBFF34F8FFEE7900052
:104AA000811805EB81010123C96993400029E0D1F8
:104AB000D5F8B81021EA0301C5F8B810D9E700BF4E
:104AC000C0000020DC000020064AD2F8B410D2F862
:104AD000B430D2F8B420DB6A8869C3F1050393616E
:104AE000704700BFC0000020054BD3F8B42022B1AE
:104AF000D3F8B4104A6C01324A64D3F8B40070475A
:104B0000C000002070B51A4C06460D4600F09CFC13
:104B1000D4F8B4309B6C2BB9D4F8B430012183F8AD
:104B20004C10C5B900F0B2FC00F08EFCD4F8B430E3
:104B30009D6C25B1D4F8B43056B100229A64D4F8F3
:104B4000B430002283F84C2000F0A0FC284670BD51
:104B50006A1E9A64F3E72846FEF796FF054B4FF06E
:104B600080521A60BFF34F8FBFF36F8FDAE700BF39
:104B7000C000002004ED00E02DE9F041234C154673
:104B800080460E461F4600F05FFCD4F8B42092F831
:104B90004C20022A0BD0D4F8B4108A6C22EA080206
:104BA0008A64D4F8B430012183F84C10CFB900F0F6
:104BB0006DFC00F049FC1DB1D4F8B4309B6C2B6047
:104BC000D4F8B43093F84C30022B16D00025D4F82A
:104BD000B430002283F84C2000F058FC2846BDE891
:104BE000F0813846FEF750FF094B4FF080521A60B3
:104BF000BFF34F8FBFF36F8FD9E7D4F8B420936C16
:104C000023EA060696640125E1E700BFC000002004
:104C100004ED00E0F8B5A8B11D46044616460F465F
:104C200000F012FC0DB1A36C2B6094F84C500222E2
:104C3000731EEDB284F84C20032B0FD8DFE803F08D
:104C4000464A0D0B4FF0A00383F31188BFF36F8F1B
:104C5000BFF34F8FFEE7022D40D0A764012D04D093
:104C6000012500F013FC2846F8BD271D1C4E3846D0
:104C7000FDF798FFE06AD6F8B8C005FA00F306F130
:104C80001C0200EB800043EA0C03394602EB800073
:104C9000C6F8B830FDF75CFFA36A43B14FF0A0033C
:104CA00083F31188BFF36F8FBFF34F8FFEE7D6F802
:104CB000B430E26ADB6A9A42D2D90A4B4FF0805292
:104CC0001A60BFF34F8FBFF36F8FCAE7A36C1F4308
:104CD000A764C3E7A36C0133A364BFE70025C0E763
:104CE000C000002004ED00E02DE9F843DDF820804D
:104CF000F8B104461D461646894600F091FCEFF3D4
:104D000011874FF0A00383F31188BFF36F8FBFF3B8
:104D10004F8F0DB1A36C2B6094F84C500222731E80
:104D2000EDB284F84C20032B10D8DFE803F0494E95
:104D30000D0B4FF0A00383F31188BFF36F8FBFF308
:104D40004F8FFEE7022D44D0C4F84890012D04D0C7
:104D5000012087F31188BDE8F883A36A43B14FF0BF
:104D6000A00383F31188BFF36F8FBFF34F8FFEE76C
:104D70001E4ED6F8F03073BB04F104094846FDF727
:104D800011FFE06AD6F8B8C005FA00F306F11C027C
:104D900000EB800043EA0C03494602EB8000C6F8B2
:104DA000B830FDF7D5FED6F8B430E26ADB6A9A4235
:104DB000CED90120B8F1000F14D0C8F80000C8E720
:104DC000A36C43EA0903A364C0E7A36C0133A364A3
:104DD000BCE70020BDE704F1180106F19400FDF7DF
:104DE000B7FEE0E7C6F80001B3E700BFC00000204F
:104DF0002DE9F843E0B104460F4600F011FCEFF353
:104E000011884FF0A00383F31188BFF36F8FBFF3B6
:104E10004F8F022394F84C5084F84C30A36CEDB2C1
:104E20000133012DA3640CD088F31188BDE8F88309
:104E30004FF0A00383F31188BFF36F8FBFF34F8F41
:104E4000FEE7A36A43B14FF0A00383F31188BFF3D9
:104E50006F8FBFF34F8FFEE7174ED6F8F03003BBCE
:104E600004F104094846FDF79DFEE06AD6F8B8C093
:104E700005FA00F306F11C0200EB800043EA0C0384
:104E8000494602EB8000C6F8B830FDF761FED6F85F
:104E9000B430E26ADB6A9A42C6D9012347B13B606B
:104EA000C2E704F1180106F19400FDF751FEEEE7A8
:104EB000C6F80031B8E700BFC000002010B578B1D7
:104EC000044600F0C1FA94F84C30022B05BF0023D1
:104ED00084F84C300024012400F0D8FA204610BD9C
:104EE000014BD3F8B440ECE7C0000020F8B50F4CFC
:104EF00000F0AAFA25681DB1BDE8F84000F0C6BA76
:104F0000271D384604F11806FDF712FE3046FDF75E
:104F10000FFE2A460C210520C4E90B76FDF794FF0D
:104F20002060BDE8F84000F0B1BA00BFC401002025
:104F3000914208B50061416005D88169D21A8A4260
:104F40000CD3012008BD9A4201D29942F9D2074BF5
:104F5000011DD86AFDF70CFE002008BD034B011DA2
:104F6000186BFDF705FE002008BD00BFC40100203E
:104F700000B583B0FFF7BAFF0D4B1A685AB134334E
:104F80000222CDE900230B490B4800234FF4827223
:104F9000FEF7BEFD40B94FF0A00383F31188BFF3C5
:104FA0006F8FBFF34F8FFEE703B05DF804FB00BFC8
:104FB000C4010020C0690008ED5000082DE9F0414F
:104FC000804628200D4617461E4600F057FB044633
:104FD000A8B145B94FF0A00383F31188BFF36F8FD9
:104FE000BFF34F8FFEE7FFF781FF069BC4F80080F9
:104FF000C4E9065726626362201DFDF7A5FD204621
:10500000BDE8F081C0B170B5164D0446286884B083
:1050100080B1164605291A46CDE90116039414DC21
:10502000FFF72EFC022816D0002328681A4601A993
:10503000FDF734FF04B070BD4FF0A00383F3118877
:10504000BFF36F8FBFF34F8FFEE7002301A9FEF779
:1050500021F804B070BD2868089A002301A9FDF763
:105060001DFFE7E7C40100202DE9F0431E4E83B089
:105070004FF000080DE0DB68DC68D3F80090251DD8
:105080002846FDF78FFD636A20469847E369012BA8
:1050900009D0F36A1A68002AEDD1326BC6E90B23F6
:1050A00003B0BDE8F083A76909EB070C0023E145D5
:1050B0004A461946204607D2C4F804C02461F06A63
:1050C0002946FDF755FDE4E7CDF80080FFF79AFF8C
:1050D0000028DED14FF0A00383F31188BFF36F8F58
:1050E000BFF34F8FFEE700BFC40100202DE9F0435E
:1050F000664CDFF89C8187B00127E36A1E68002EAA
:1051000044D0DB681E68FFF707F8FFF70FF8A36BC2
:105110008342054649D88642A0634FD90022711BBD
:105120002068FEF7E5FBFFF7BDF838B94FF0805374
:10513000C8F80030BFF34F8FBFF36F8F002203A971
:105140002068FEF777F80028D7D0039B002BF5DB0B
:10515000059E736913B1301DFDF724FDFEF7E6FFD0
:10516000A36B9842054626D3039BA563092BE5D87C
:1051700007FA03F313F4047974D113F0C70F4CD179
:105180009B06DBD5304600F0D5FAD7E7FEF7C4FF23
:10519000FEF7CCFFA36B9842054606D3236BA563AD
:1051A0001A68B2FA82F25209B9E7FFF75DFFA56308
:1051B000FFF778F8C2E7FFF757FFD5E7FFF772F878
:1051C000E36ADB68D3F80C9009F10400FDF7EAFC10
:1051D000D9F81C30012B04D0D9F824304846984720
:1051E000ACE7D9F818102A46314433464846FFF751
:1051F0009FFE0028F0D0002332460093194648460F
:10520000FFF700FF0028E7D14FF0A00383F31188D8
:10521000BFF36F8FBFF34F8FFEE7049BB1692A4640
:1052200019443046FFF784FE002887D0736A304661
:105230009847F369012B81D1B369049ACDF80090A6
:105240001A4430464B464946FFF7DCFE00287FF4FF
:1052500075AF4FF0A00383F31188BFF36F8FBFF3D7
:105260004F8FFEE70499B16131B1294430462B4696
:105270002A46FFF75DFE61E74FF0A00383F3118834
:10528000BFF36F8FBFF34F8FFEE700BFC401002055
:1052900004ED00E0064B586B00B170474FF0A003DF
:1052A00083F31188BFF36F8FBFF34F8FFEE700BF0B
:1052B000C401002008B1806970474FF0A00383F358
:1052C0001188BFF36F8FBFF34F8FFEE708B14068BF
:1052D00070474FF0A00383F31188BFF36F8FBFF3C4
:1052E0004F8FFEE708B1006870474FF0A00383F3CB
:1052F0001188BFF36F8FBFF34F8FFEE758B110B522
:10530000044600F0A1F86469003418BF012400F0DD
:10531000BDF8204610BD4FF0A00383F31188BFF302
:105320006F8FBFF34F8FFEE740B110B5044600F01A
:105330008BF8246A00F0AAF8204610BD4FF0A003B5
:1053400083F31188BFF36F8FBFF34F8FFEE700BF6A
:1053500038B540B104460D4600F076F82562BDE848
:10536000384000F093B84FF0A00383F31188BFF3E7
:105370006F8FBFF34F8FFEE70000000000000000BA
:10538000BD480068006880F3088862B661B6BFF364
:105390004F8FBFF36F8F00DF00BF00BF0E4B1B6846
:1053A00082B000220133019208D04FF0A00383F3B2
:1053B0001188BFF36F8FBFF34F8FFEE74FF0A0034D
:1053C00083F31188BFF36F8FBFF34F8F019B002BC7
:1053D000FCD002B0704700BF3000002010B421F0B4
:1053E00001014FF08074054B40F8202C40E9021475
:1053F00040F80C3C5DF8044B403870479D53000862
:10540000074B19680868B0E8F00F80F30988BFF30C
:105410006F8F4FF0000080F311884EF00D0E704733
:1054200074010020074B1B68B3F57A7F08D04FF05A
:10543000A00383F31188BFF36F8FBFF34F8FFEE795
:10544000704700BF300000204FF0A00383F31188A5
:10545000BFF36F8FBFF34F8F0A4A13680133012BDD
:10546000136000D07047084B1B6813F0FF0FF9D092
:105470004FF0A00383F31188BFF36F8FBFF34F8FFB
:10548000FEE700BF3000002004ED00E0084A13688A
:1054900043B94FF0A00383F31188BFF36F8FBFF3BD
:1054A0004F8FFEE7013B13600BB983F31188704700
:1054B00030000020EFF30980BFF36F8F104B1A68A4
:1054C00020E9F00F10602DE908404FF0A00080F3B4
:1054D0001188FEF7D3FF4FF0000080F31188BDE87C
:1054E000084019680868B0E8F00F80F30988BFF336
:1054F0006F8F7047AFF30080AFF30080AFF3008091
:105500007401002008B54FF0A00383F31188BFF3A6
:105510006F8FBFF34F8FFEF733FE18B1034B4FF081
:1055200080521A60002383F3118808BD04ED00E067
:1055300030B4094A094D0A4B0A4C0B48002111604E
:1055400029601B68A4FB03139B09013B072103602F
:1055500030BC1160704700BF10E000E018E000E0D0
:1055600010000020D34D621014E000E010B5284B6D
:10557000284A197882B0FF20C9B2019118701B78AF
:10558000DBB28DF803309DF803309DF8031003F073
:10559000A003072009061370506048BF062101D4FC
:1055A0000FE001469DF803305B00DBB28DF803305D
:1055B0009DF803301B0601F1FF30F2D4032909D016
:1055C00051604FF0A00383F31188BFF36F8FBFF3D7
:1055D0004F8FFEE701990E480F4BC9B20170196851
:1055E00041F07F611960196841F0704119604FF412
:1055F00040735360FFF79CFF084B00241C60FFF7CB
:10560000BFFEFEF73BFFFFF7C9FE204602B010BD0C
:1056100000E400E00002002020ED00E03000002067
:10562000EFF305820F2A11D8104B11495A680B6805
:1056300003F4E063934208D94FF0A00383F3118889
:10564000BFF36F8FBFF34F8FFEE770470949074BDA
:10565000525C19789142E8D94FF0A00383F3118886
:10566000BFF36F8FBFF34F8FFEE700BF0002002034
:105670000CED00E0F0E300E008ED00E0F8B50446D2
:10568000FEF74AFD274B996871B91846264A40F83B
:105690000C1F22F007025960012540F6F8711A60CC
:1056A0005160196110609D60002C35D0083462078C
:1056B0001CBF24F007040834611E40F6F6729142C4
:1056C0002AD81B68174D03E01A6822B11D461346FD
:1056D0005968A142F8D3154A93421DD01E68286824
:1056E0002E600E1B102E00F108050DD91F190C3A63
:1056F0007E605C60786800E01A46136859688142F1
:10570000FAD33B6021461760094A1368591A1160A1
:10571000FEF7C8FD2846F8BD0025FEF7C3FD284664
:10572000F8BD00BF0802002024020020140200205F
:1057300034000020C8B138B50546FEF7EDFCA5F1F0
:10574000080055F8044C094A00E01A4613685968E5
:10575000A142FAD3064945F8083C0B6810601C4486
:105760000C60BDE83840FEF79DBD70470802002080
:1057700034000020014B1868704700BF340000203F
:10578000704700BF81F0004102E000BF83F000439A
:1057900030B54FEA41044FEA430594EA050F08BFCC
:1057A00090EA020F1FBF54EA000C55EA020C7FEA90
:1057B000645C7FEA655C00F0E2804FEA5454D4EB0D
:1057C0005555B8BF6D420CDD2C4480EA020281EAD7
:1057D000030382EA000083EA010180EA020281EA0F
:1057E0000303362D88BF30BD11F0004F4FEA013161
:1057F0004FF4801C4CEA113102D0404261EB410170
:1058000013F0004F4FEA03334CEA133302D05242F5
:1058100063EB430394EA050F00F0A780A4F10104B1
:10582000D5F1200E0DDB02FA0EFC22FA05F28018EB
:1058300041F1000103FA0EF2801843FA05F35941D1
:105840000EE0A5F120050EF1200E012A03FA0EFC50
:1058500028BF4CF0020C43FA05F3C01851EBE3717A
:1058600001F0004507D54FF0000EDCF1000C7EEB97
:1058700000006EEB0101B1F5801F1BD3B1F5001FD5
:105880000CD349085FEA30004FEA3C0C04F10104F4
:105890004FEA445212F5800F80F09A80BCF1004F1D
:1058A00008BF5FEA500C50F1000041EB045141EA9F
:1058B000050130BD5FEA4C0C404141EB010111F4A0
:1058C000801FA4F10104E9D191F0000F04BF01464B
:1058D0000020B1FA81F308BF2033A3F10B03B3F129
:1058E00020020CDA0C3208DD02F1140CC2F10C02B9
:1058F00001FA0CF021FA02F10CE002F11402D8BF17
:10590000C2F1200C01FA02F120FA0CFCDCBF41EAE2
:105910000C019040E41AA2BF01EB0451294330BDB1
:105920006FEA04041F3C1CDA0C340EDC04F114048E
:10593000C4F1200220FA04F001FA02F340EA030065
:1059400021FA04F345EA030130BDC4F10C04C4F1AB
:10595000200220FA02F001FA04F340EA030029468B
:1059600030BD21FA04F0294630BD94F0000F83F4D5
:10597000801306BF81F480110134013D4EE77FEAB8
:10598000645C18BF7FEA655C29D094EA050F08BF04
:1059900090EA020F05D054EA000C04BF19461046E5
:1059A00030BD91EA030F1EBF0021002030BD5FEA29
:1059B000545C05D14000494128BF41F0004130BD51
:1059C00014F580043CBF01F5801130BD01F00045A5
:1059D00045F0FE4141F470014FF0000030BD7FEA18
:1059E000645C1ABF194610467FEA655C1CBF0B4613
:1059F000024650EA013406BF52EA033591EA030F2A
:105A000041F4002130BD00BF90F0000F04BF002121
:105A1000704730B54FF4806404F132044FF0000554
:105A20004FF0000150E700BF90F0000F04BF0021CD
:105A3000704730B54FF4806404F1320410F0004533
:105A400048BF40424FF000013EE700BF42004FEA2E
:105A5000E2014FEA31014FEA02701FBF12F07F43AB
:105A600093F07F4F81F06051704732F07F4208BF62
:105A7000704793F07F4F04BF41F40021704730B569
:105A80004FF4607401F0004521F000411CE700BFB5
:105A900050EA010208BF704730B54FF000050AE038
:105AA00050EA010208BF704730B511F0004502D539
:105AB000404261EB41014FF4806404F132045FEA3B
:105AC000915C3FF4D8AE4FF003025FEADC0C18BFE4
:105AD00003325FEADC0C18BF033202EBDC02C2F1D6
